:020000040000FA
:0600000068EF16F012008B
:020006001200E6
:0600080043EF10F01200AE
:02000E000200EE
:10001000582D0000D201000021000000472D0000F3
:08002000FE00000001000000D9
:0800280050EC05F0FB0EDBCFEC
:10003000F3FFDB06F35000090AE09EEC05F0FA0E30
:1000400009EC06F0F3E1151CF1E1010E01D0000E00
:100050007FEF05F050EC05F03B0EE12402E3E16890
:10006000E652E16E010EDB6A020EDB6AF90EDBCFAF
:10007000F6FFFA0EDBCFF7FFFB0EDBCFF8FF080031
:10008000F550DF6EDF5002E1A3EF04F0250EDF5CD8
:1000900002E096EF04F0030EDB6A040EDB6A050E45
:1000A000DB6A060EDB6A070EDB6AB8EC04F02D0E85
:1000B000DF5C0CE02B0EDF5C09E0200EDF5C06E06D
:1000C000230EDF5C03E0300EDF5C1AE1DF50300A04
:1000D00014E0130A0FE0030A0AE00B0A05E0060A1F
:1000E000E4E1030EDB80E1D7030EDB82DED7030EF3
:1000F000DB84DBD7030EDB86D8D7030EDB88D5D7AE
:100100002A0EDF5C1BE1B4EC04F002EC05F010E019
:10011000030EDB8008680968130EDBCF0DF0140EA8
:10012000DBCF0EF00BEC0FF0040E06C0DBFF03D0AC
:10013000130EEBEC04F0B8EC04F00BD0090EDB6A04
:1001400059EC05F003E0CDEC05F0FAD7090EEBEC25
:1001500004F0030EDBB0DB982E0EDF5C1BE1B8EC85
:1001600004F02A0EDF5C0BE1B4EC04F002EC05F0C5
:1001700003E1130E3DEC05F0B8EC04F00BD0090ED2
:10018000DB6A59EC05F003E0CDEC05F0FAD7090E77
:100190003DEC05F0680EDF5C07E1B8EC04F0680E9A
:1001A000DF5C1DE1030E18D0740EDF5C17E07A0EE1
:1001B000DF5C14E0480EDF5C06E0540EDF5C03E019
:1001C0005A0EDF5C02E1020E07D06C0EDF5C03E02A
:1001D0006A0EDF5C04E1010E90EC05F0C9DBDF5034
:1001E0006E0A01E17FD31E0A01E192D1200A01E1EA
:1001F0008FD13F0A01E149D11A0A01E146D10D0A26
:1002000001E143D1200A01E140D13A0A01E13DD1A7
:10021000200A01E13AD1260A01E135D10D0A01E1B6
:1002200032D11A0A01E1D9D0200A4AE0300A1FE08F
:10023000460A0EE0250A01E083D3D950F90FE96E92
:10024000FF0EDA20EA6E010EEE5E000EEE5AEE5A56
:100250009EEC05F0250EE66E95DB03E1151C01E131
:1002600069D39AEC05F001E26BD3DB2A69D3080E5F
:10027000DB6A040EDB50010806E2040EDB0462ECCC
:1002800005F0DB508BDB080EDB5009E0030EDB5082
:10029000010B05E172DB01E04DD3080EDB6A64DB84
:1002A000EFCFDFFF12EC06F003E1151C01E142D3B2
:1002B0009AEC05F001E3DB2A60DB01E141D33AD39C
:1002C000070EDB5002080FE1DEEC05F0030EA5EC93
:1002D00005F00E0EEECFDBFF0F0EEECFDBFF100EA4
:1002E000EECFDBFF20D0F70EDBCF17F0F80EDBCF21
:1002F00018F0020E175E000E185AF70E17C0DBFF3B
:10030000F80E18C0DBFF17C0E9FF18C0EAFF95EC34
:1003100005F0166A0E0E14C0DBFF0F0E15C0DBFFD2
:10032000100E16C0DBFF0E0EDBCFE6FF0F0EDBCF8D
:10033000E6FF100EDBCFE6FF07EC15F0E552E552C5
:10034000E552130E07C0DBFF140E08C0DBFF060EDC
:10035000DB5005E0130ED9EC05F001E26ADBFDECA1
:1003600005F002E2130E37DBC0EC05F006E0040EE8
:10037000D9EC05F002E2050E2EDB030EDBB005D052
:10038000FCDA01E0D7D2080EDB6A090EDB6A0E0E3A
:10039000DBCFF6FF0F0EDBCFF7FF100EDBCFF8FF42
:1003A0000800F550DF6EDF5014E003EC06F011E2B8
:1003B00012EC06F003E1151C01E1BCD2BBDB01E34A
:1003C000DB2A090EDB2AD9500E0FE96E000ECBDBBB
:1003D000E7D7D3DA01E1B4D2ADD2C6DA110EEECF4F
:1003E000DBFF120EEDCFDBFF110EDBCFE6FF120EAF
:1003F000DBCFE6FFF9EC14F0E552E552130EF3CF34
:10040000DBFF140EF4CFDBFF060EDB5004E0130E0F
:10041000D0DB01E20EDBFDEC05F002E2130EDBDACD
:10042000AFDB05E0040EC5DB02E2050ED4DA030EF5
:10043000DBB005D0A2DA01E07DD2080EDB6A090E3E
:10044000DB6A110EDBCFE9FF120EDBCFEAFFEFCF45
:10045000DFFFDF5014E0D7DB12E2E4DB03E1151C21
:1004600001E168D267DB01E3DB2A090EDB2A110E0A
:10047000DB2ADBCFE9FF120EE8E3DB2AE6D77DDAE1
:1004800001E15ED257D2030EDB8E070EDB0410E1D2
:1004900095DB040E5ADB0A0EEECFDBFF0B0EEECF20
:1004A000DBFF0C0EEECFDBFF0D0EEECFDBFF6CD0D3
:1004B000070EDB5003082CE1030EDBAE0DD0B2DAE1
:1004C000020E76DAEFCF14F0156A166A176A14AEC8
:1004D00039D01568166835D0F70EDBCF15F0F80E59
:1004E000DBCF16F0020E155E000E165AF70E15C081
:1004F000DBFFF80E16C0DBFF15C0E9FF16C0EAFFF0
:10050000EFCF14F00A0E14C0DBFF0B0EDB6A38D0FD
:10051000070EDB50020809E1030EDBAE04D059DB05
:1005200016AE10D00ED055DB0DD0030EDBAE12D0C0
:1005300079DA020E3DDAF9DA166A176A15AE02D0D8
:1005400016681768E2DA0C0E16C0DBFF0D0E17C036
:10055000DBFF1AD0F70EDBCF16F0F80EDBCF17F06B
:10056000020E165E000E175AF70E16C0DBFFF80ECD
:1005700017C0DBFF16C0E9FF17C0EAFFD6DAC5DAFD
:100580000C0EDB6A0D0EDB6A060EDB5005E1010E78
:10059000F36E050EF3CFDBFF150EDB6A160EDB6A7A
:1005A000D950370F146E000EDA20156E390E14C0B4
:1005B000DBFF3A0E15C0DBFF380EDB6A080EDB6A84
:1005C0000A0EAEDADF50780A12E0200A10E0280A9C
:1005D0000CE0200A0AE03F0A06E00D0A02E0200AC9
:1005E00008E1020E05D0080E03D0080EDF26100E1B
:1005F00097DA030EDBBE02D0DB92DB94DB50800B7C
:1006000024E08ADAD890030EEB50000A08E6000EC8
:10061000EE5C000EEE58000EEE58000EEE5815E29D
:1006200013DA0B680C680D680E68FAEC15F00A0E08
:1006300002C0DBFF0B0E03C0DBFF0C0E04C0DBFFB0
:100640000D0E05C0DBFF2D0E08D0030EDBA202D07D
:100650002B0E03D0DBA408D0200EF36E170EF3CFC1
:10066000DBFF150EDB2A02D0170EDB6A050EDB500E
:1006700003E1B7D901E189D0360E146E2D0E156E47
:10068000000E166E070EDBCF17F0186A196A1A6A89
:1006900017C00BF018C00CF019C00DF01AC00EF006
:1006A000D3D932EC16F014500224F36E1550032007
:1006B000F46E16500420F86EF4CFF7FFF3CFF6FF78
:1006C0000800090EF5CFDBFF580EDF5C0FE1610E6D
:1006D000F36E090E7BD90AE3200E146E090EDBCFF0
:1006E000E7FF1450E75E090EE7CFDBFF070EDBCF15
:1006F00014F0156A166A176A0FDA14C00BF015C0E9
:100700000CF016C00DF017C00EF0EECF06F0EECFD5
:1007100007F0EECF08F0EFCF09F032EC16F009C089
:10072000EDFF08C0EDFF07C0EDFF06C0EFFF390E7B
:10073000DBCFE9FFDB063A0EDBCFEAFF01E2DB06A7
:10074000090EDBCFEFFF150EDB2A4BD995E1030E27
:10075000DBA61DD06F0EDF5C06E1C1D918E3150ED4
:10076000DB285BDA14D0780EDF5C09E0580EDF5C22
:1007700006E0620EDF5C03E0420EDF5C08E1020E81
:10078000F36E160EF3CFDBFF02D0150EDB6A030EFD
:10079000DB50100B0EE0040EDBCF14F0050EDB5027
:1007A000D880145406E2060EDB5003E1040EDB5041
:1007B00034DA95D90AE2050EDBCFE7FF150EDB50E0
:1007C000E75E050EE7CFDBFF02D0050EDB6A040E05
:1007D000DBCF14F0160E45D9D880145414E2160E4F
:1007E000DBCFE6FF150EDBCFE6FF040EDBCFE6FF27
:1007F000050EDB50E552E75CE552D880E754E55240
:10080000D880E7545FD9030EDB50010B0BE1080ED3
:10081000DB5008E0B2D801E08DD0080EDB50BED826
:10082000080EDB6A170EDB5007E088D9170EF1D9E6
:1008300003E1151C01E17ED0160EDB5016E07ED9D7
:10084000300EE66E9FD802E1151C74E077D9DFCF39
:10085000E6FF7BEC15F0E552E552E552F4CF15F0DA
:100860000001F31C02E1151C65E0050EDBCF14F05E
:10087000160EDB50D880145409E2050EDBCFE7FFDB
:10088000160EDB50E75E050EE7CFDBFF300EE66E9F
:10089000050ECBD94FE1390EDB2ADBCFE9FF3A0E4B
:1008A00001E3DB2ADBCFEAFF090EEFCFDBFFDB50F2
:1008B0000EE044D9090EADD902E1151C3BE0390E1A
:1008C000DB2ADBCFE9FF3A0EEDE3DB2AEBD755D885
:1008D00031E1160EDBCFE6FF080EC3D8E552E72460
:1008E0005DD82ED0070EDB50030A1CE0010A14E08D
:1008F000030A07E07BD9DBCFEEFF020EDBCFEDFF73
:100900001FD0F5D8196A17AE02D0186819682CD80C
:10091000BCD819C0EEFF14D0EAD817BE186824D886
:10092000B4D80ED063D9DBCFEFFF0AD07BD905E175
:10093000151C03E1F368F46810D0FCD801E3DB2A4E
:1009400079D93FEF00F0010EDBCF14F0020EDBCFC0
:1009500015F014C0F3FF15C0F4FF3B0EE15C02E29A
:10096000E16AE552E16ECBD029D9020EA5EF05F080
:1009700061D90800F550DF6E1200200EE66E080EF9
:1009800015EF06F07BEC15F0E552E552E552F3CF9A
:1009900014F0F4CF15F00001F31C1200146E156A68
:1009A000D950010F4DD91450EE261550ED221200EA
:1009B000185E000E195AF70E18C0DBFFF80E19C0AA
:1009C000DBFF18C0E9FF19C0EAFF1200DBCFF4FF1C
:1009D000F350F45C1200DB50E76E040EE7CFDBFF50
:1009E00012000A0EDBCF14F00B0EDBCF15F00C0E4D
:1009F000DBCF16F00D0EDBCF17F0145015101610CC
:100A000017101200130EEECFDBFF140EEDCFDBFF3D
:100A1000130EDBCF14F0140EDBCF15F00001800EA7
:100A200015141200F70EDBCF18F0F80EDBCF19F01B
:100A30001200050EDB50E66ED950130F01D9E552B6
:100A4000E750EE6EED6A12000A0EDBCF06F00B0ED9
:100A5000DBCF07F00C0EDBCF08F00D0EDBCF09F07B
:100A60001200DBCFE6FF150EDBCFE6FF050EDB50F5
:100A7000E552E724E552E7241200DB50CED8010E00
:100A8000F36E060EF3CFDBFF1200EE50EFCFEAFF5E
:100A9000E96E16C0EEFF17C0EEFF18C0EEFF1200A1
:100AA000D9CFE6FFDACFE6FFE1CFD9FFE2CFDAFF19
:100AB0001200DFCFE6FFE66A56EC16F0E552E5528B
:100AC000F3501200E76E080EE7CFDBFF1200EECF07
:100AD00014F0EECF15F0EFCF16F0176A1200050EE6
:100AE000DBCF14F0150EDB50D88014541200010E29
:100AF000DBCF16F0020EDBCF17F0186A1200E552BA
:100B0000E5CFDAFFE7CFD9FF12000A0E14C0DBFFF2
:100B10000B0E15C0DBFF1200D9500A0F20EF06F0B4
:100B2000F36E070EF3CFDBFF1200EECF14F0EFCF22
:100B300015F01200010EDB2A020E1200FC0EDBCFB4
:100B4000E6FFFD0EDBCFE6FF1200145E000E155A25
:100B5000F70E14C0DBFFF80E15C0DBFF14C0E9FF71
:100B600015C0EAFF1200DA20EA6EEF2AEECFF6FF98
:100B7000000EEF22EECFF7FFEF22EECFF8FF1200CC
:100B8000040EDBCFE6FF130EDB50E552E75C9ADF85
:100B9000DB5004DF060EDB501200090EDB500A0D9D
:100BA000F350DF24D00FE76E090EE7CFDBFFB8EF7D
:100BB00004F0DB50F36E050EE6EF04F0F70EDBCF2A
:100BC00014F0F80EDBCF15F01200DFCFE6FFC2EF16
:100BD00004F028DF030EECDE67EF05F014EC00F004
:100BE000E552E552E552E55200091200BDDEEE5035
:100BF000EFCFEAFFE96E010E1200130EDB50F36E29
:100C0000040EE6EF04F0040EDB50F36E090EE6EF7F
:100C100004F0DBCFE6FFC2EF04F0E76E050EE7CF8E
:100C2000DBFF12008BDFE5EF05F0DBCFE6FF86DFB1
:100C3000EEEF05F0D950F90FE96EFF0EB3EF05F0B6
:0A0C4000E96E000EDA20EA6E1200E1
:060C4A00D9CFE6FFE1CF67
:100C5000D9FF020EE126BCD8D950FB0FE96EFF0E7A
:100C6000DA20EA6EEECFE6FFEECFE6FFEECFE6FF4C
:100C7000EFCFE6FFDAD8E552E552E552E552D9501A
:100C8000F70FE96EFF0EDA20EA6EEECFE6FFEECF49
:100C9000E6FFEECFE6FFEFCFE6FFC7D8E552E5521D
:100CA000E552E552F50EDBCFE9FFF60EDBCFEAFFAA
:100CB000EECFE6FFEFCFE6FF94D8E552E552F50E12
:100CC000DBCFE9FFF60EDBCFEAFF020EE926000ECE
:100CD000EA22EECFE6FFEECFE6FFEECFE6FFEFCF64
:100CE000E6FFA3D8E552E552E552E552F50EDBCF1B
:100CF000E9FFF60EDBCFEAFF060EE926000EEA2238
:100D0000EECFE6FFEECFE6FFEECFE6FFEFCFE6FF5A
:100D10008CD8E552E552E552E552F50EDBCFE9FFFE
:100D2000F60EDBCFEAFF0A0EE926000EEA22EF50AC
:100D3000E66E41D8E552DE6ADD6ADECF14F0DDCF23
:100D400015F0F50EDBCFE9FFF60EDBCFEAFFEECFB5
:100D500016F0EFCF17F0090E165E000E175A165058
:100D6000145C175015581DE2F50EDBCFE9FFF60EA7
:100D7000DBCFEAFF0B0EE926000EEA22E9CF14F0E2
:100D8000EACF15F0DE501424E96EDD501520EA6E2E
:100D9000EF50E66E10D8E552DF2A010E01E3DB2AA0
:100DA000CCD7020EE15C02E2E16AE552E16EE55267
:100DB000E7CFD9FF1200D9CFE6FFE1CFD9FF9EA838
:100DC000FED7FE0EDB50AD6EE552E7CFD9FF120025
:100DD000AA0EE66EF0DFE552550EE66EECDFE55248
:100DE0001200D9CFE6FFE1CFD9FFFD0EDBCF14F023
:100DF000FE0EDBCF15F015C014F0156A1450E66E28
:100E0000DADFE552FF0EE76EFD0EDBCF14F0FE0ECB
:100E1000DBCF15F0E7501416156A1450E66ECBDFE1
:100E2000E552E552E7CFD9FF1200D9CFE6FFE1CF77
:100E3000D9FFFB0EDBCF14F0FC0EDBCF15F0FD0E5F
:100E4000DBCF16F0FE0EDBCF17F0180ED89017325E
:100E5000163215321432E806F9E11450E66EABDFB3
:100E6000E552FB0EDBCF14F0FC0EDBCF15F0FD0ED0
:100E7000DBCF16F0FE0EDBCF17F0100ED890173236
:100E8000163215321432E806F9E11450E66E93DF9B
:100E9000E552FB0EDBCF14F0FC0EDBCF15F0FD0EA0
:100EA000DBCF16F0FE0EDBCF17F0080ED89017320E
:100EB000163215321432E806F9E11450E66E7BDF83
:100EC000E552FB0EDBCF14F0FC0EDBCF15F0FD0E70
:100ED000DBCF16F0FE0EDBCF17F01450E66E6BDFA3
:100EE000E552E552E7CFD9FF1200D9CFE6FFE1CFB7
:100EF000D9FF040EE126FB0EDBCF1CF0FC0EDBCF8E
:100F00001DF0FD0EDBCF1EF0FE0EDBCF1FF00C6AD6
:100F1000240E0D6E740E0E6E490E0F6E1CC007F07F
:100F20001DC008F01EC009F01FC00AF09EEC0EF0B4
:100F3000F70EDBCF0CF0F80EDBCF0DF0F90EDBCFA8
:100F40000EF0FA0EDBCF0FF04BEC0EF007C018F0EE
:100F500008C019F009C01AF00AC01BF00C6A0D6A2B
:100F6000800E0E6E410E0F6E18C007F019C008F00B
:100F70001AC009F01BC00AF04BEC0EF007C014F0C9
:100F800008C015F009C016F00AC017F00C6A0D6A07
:100F9000800E0E6E3F0E0F6E14C007F015C008F0E5
:100FA00016C009F017C00AF0B4EC0DF007C0DEFF60
:100FB00008C0DEFF09C0DEFF0AC0DDFFDD52DD52E2
:100FC000D9CFE9FFDACFEAFFEECF14F0EECF15F07C
:100FD000EECF16F0EFCF17F00C6A0D6A7F0E0E6E93
:100FE000430E0F6E14C007F015C008F016C009F0CC
:100FF00017C00AF05FEC0FF0010A01E098D0D9CFDA
:10100000E9FFDACFEAFFEECF1CF0EECF1DF0EECF16
:101010001EF0EFCF1FF00C6A0D6A800E0E6E3F0EB1
:101020000F6E1CC007F01DC008F01EC009F01FC0E5
:101030000AF0B5EC0DF007C018F008C019F009C0AF
:101040001AF00AC01BF00C6A0D6A800E0E6E400E7C
:101050000F6E18C007F019C008F01AC009F01BC0C5
:101060000AF04BEC0EF007C014F008C015F009C0F0
:1010700016F00AC017F00C6A0D6A800E0E6E3F0E55
:101080000F6E14C007F015C008F016C009F017C0A5
:101090000AF0B4EC0DF007C0DEFF08C0DEFF09C0A7
:1010A000DEFF0AC0DDFFDD52DD52D9CFE9FFDACF26
:1010B000EAFFEECF14F0EECF15F0EECF16F0EFCF43
:1010C00017F00C6A0D6A7F0E0E6E430E0F6E14C081
:1010D00007F015C008F016C009F017C00AF05FEC61
:1010E0000FF0010A03E1000E42D041D0F50EDBCF34
:1010F000E9FFF60EDBCFEAFFEF0EEF6EDECF07F073
:10110000DECF08F0DECF09F0DDCF0AF0DD52DD5290
:1011100038EC0FF00950E66EF30EDBCFE9FFF40E6A
:10112000DBCFEAFFE552E750EF6E010E20D0F50E5F
:10113000DBCFE9FFF60EDBCFEAFFEF68DECF07F08B
:10114000DECF08F0DECF09F0DDCF0AF0DD52DD5250
:1011500038EC0FF00950E66EF30EDBCFE9FFF40E2A
:10116000DBCFEAFFE552E750EF6E010E00D0146EC0
:10117000040EE15C02E2E16AE552E16E1450E552D0
:10118000E7CFD9FF1200D9CFE6FFE1CFD9FFFC0EA0
:10119000DBCFE9FFFD0EDBCFEAFF040EE926000EF0
:1011A000EA22EECF14F0EFCF15F0FC0EDBCFE9FF13
:1011B000FD0EDBCFEAFF060EE926000EEA22EECF97
:1011C00016F0EFCF17F01650141802E1175015184B
:1011D0000DE1FC0EDBCFE9FFFD0EDBCFEAFF080ED1
:1011E000E926000EEA22EE2AEF2277D0FC0EDBCFB2
:1011F000E9FFFD0EDBCFEAFF020EE926000EEA2230
:10120000EE50EFCFEAFFE96EFE0EDBCFEFFFFC0EF4
:10121000DBCFE9FFFD0EDBCFEAFF040EE926000E6F
:10122000EA22EE2AEF22FC0EDBCFE9FFFD0EDBCF38
:10123000EAFF020EE926000EEA22EE2AEF22FC0E59
:10124000DBCFE9FFFD0EDBCFEAFF020EE926000E41
:10125000EA22EECF14F0EFCF15F0FC0EDBCFE9FF62
:10126000FD0EDBCFEAFF0A0EE926000EEA22E9CFE7
:1012700018F0EACF19F0FC0EDBCFE9FFFD0EDBCF53
:10128000EAFF060EE926000EEA221850EE24166E3A
:101290001950EE20176E1650141802E11750151849
:1012A0001CE1FC0EDBCFE9FFFD0EDBCFEAFF0A0EEF
:1012B000E926000EEA22E9CF14F0EACF15F0FC0E81
:1012C000DBCFE9FFFD0EDBCFEAFF020EE926000EC1
:1012D000EA2214C0EEFF15C0EDFFE552E7CFD9FFBB
:1012E0001200D9CFE6FFE1CFD9FFE652FD0EDBCFEA
:1012F000E9FFFE0EDBCFEAFF040EE926000EEA222C
:10130000EE50ED1003E1000E6CD06BD0FD0EDBCF84
:10131000E9FFFE0EDBCFEAFFEE50EFCFEAFFE96E0A
:10132000EFCFDFFFF29EFD0EDBCFE9FFFE0EDBCF3E
:10133000EAFF040EE926000EEA22EE06EF5AF28ECC
:10134000FD0EDBCFE9FFFE0EDBCFEAFFEE2A000E3B
:10135000EF22FD0EDBCFE9FFFE0EDBCFEAFFEECF83
:1013600014F0EFCF15F0FD0EDBCFE9FFFE0EDBCF63
:10137000EAFF0A0EE926000EEA22E9CF18F0EACFCA
:1013800019F0FD0EDBCFE9FFFE0EDBCFEAFF060E04
:10139000E926000EEA221850EE24166E1950EE20AF
:1013A000176E1650141802E11750151818E1FD0EAB
:1013B000DBCFE9FFFE0EDBCFEAFF0A0EE926000EC7
:1013C000EA22E9CF14F0EACF15F0FD0EDBCFE9FFFA
:1013D000FE0EDBCFEAFF14C0EEFF15C0EDFFDF50BD
:1013E00000D0E552E552E7CFD9FF1200D9CFE6FF92
:1013F000E1CFD9FFFD0EDBCFE9FFFE0EDBCFEAFF29
:10140000040EEB6A050EEB6AFD0EDBCFE9FFFE0E64
:10141000DBCFEAFF080EEB6A090EEB6AFD0EDBCFAD
:10142000E9FFFE0EDBCFEAFF060EE926000EEA22F8
:10143000FB0EDBCFEEFFFC0EDBCFEDFFFD0EDBCFB7
:10144000E9FFFE0EDBCFEAFF0A0EE926000EEA22D4
:10145000E9CF14F0EACF15F0FD0EDBCFE9FFFE0E69
:10146000DBCFEAFF020EE926000EEA2214C0EEFFEF
:1014700015C0EDFFFD0EDBCFE9FFFE0EDBCFEAFF6F
:101480000A0EE926000EEA22E9CF14F0EACF15F0A1
:10149000FD0EDBCFE9FFFE0EDBCFEAFF14C0EEFF4F
:0C14A00015C0EDFFE552E7CFD9FF1200A8
:0414AC00D9CFE6FFAF
:1014B000E1CFD9FF290EE126090EDE6EDD6A020EAC
:1014C00060C0DBFF030E61C0DBFF040E62C0DBFF08
:1014D000050E63C0DBFF060EDB68070EDB68080E37
:1014E000DB68090EDB68010EF36E0A0EF3CFDBFF3B
:1014F000D9CFE6FFDACFE6FFE668E668E668E66899
:1015000060C0E6FF61C0E6FF62C0E6FF63C0E6FFC1
:1015100025EC06F0146E0A0EE15E1450290EE15C13
:1015200002E2E16AE552E16EE552E7CFD9FF12002F
:10153000D9CFE6FFE1CFD9FF290EE126020E60C028
:10154000DBFF030E61C0DBFF040E62C0DBFF050E94
:1015500063C0DBFF060EDB68070EDB68080EDB6886
:10156000090EDB68040EF36E0A0EF3CFDBFF0B0EE1
:1015700064C0DBFF00016451010A07E0010A01E0D9
:101580003BD00A0EDE6EDD6A37D00E0EDE6EDD6AEF
:1015900065C014F066C015F067C016F068C017F09B
:1015A000180ED8901732163215321432E806F9E1C7
:1015B0001450E76E0C0EE7CFDBFF67C014F068C075
:1015C00015F00001166A176A1450E76E0D0EE7CF8A
:1015D000DBFF66C014F067C015F068C016F0176A2C
:1015E0001450E76E0E0EE7CFDBFF00016551E76E8A
:1015F0000F0EE7CFDBFF00D0D9CFE6FFDACFE6FF53
:10160000E668E668E668E66860C0E6FF61C0E6FF97
:1016100062C0E6FF63C0E6FF25EC06F0146E0A0E1A
:10162000E15E1450290EE15C02E2E16AE552E16EEE
:10163000E552E7CFD9FF1200D9CFE6FFE1CFD9FFBE
:10164000110EE126040EDB6A050EDB6A060EDB6A6C
:10165000070EDB6A0D0EDB6A0E0EDB6A0F0EDB6A0D
:1016600001010451051101E175D2DE6ADD6ADECFA8
:1016700014F0DDCF15F0D890155004E6040E145C7C
:10168000000E15583DE2000EE66E010EE66E71EC9E
:1016900009F0E552E552146E156A166A176A080ECB
:1016A000086E096ADECF0DF0DDCF0EF00BEC0FF007
:1016B00006501F0B07E0D89014361536163617362D
:1016C000E806F9E1D950040FE96EDACFEAFFEE50EF
:1016D0001426EE501522EE501622EE501722040E5C
:1016E00014C0DBFF050E15C0DBFF060E16C0DBFFC6
:1016F000070E17C0DBFFDF2A010E01E3DB2AB7D795
:10170000000EE66E010EE66E71EC09F0E552E55250
:10171000E76E0C0EE7CFDBFF000EE66E010EE66E05
:1017200071EC09F0E552E552E76E0D0EE7CFDBFFF5
:101730000C0EDB50020A01E00DD2DE6ADD6ADECF5C
:1017400014F0DDCF15F000016951145C6A51155891
:1017500037E2040EDBCF14F0050EDBCF15F0060EDA
:10176000DBCF16F0070EDBCF17F0DECFE9FFDDCFC2
:10177000EAFF120EEA02F3CFEAFFE902F3CFE9FF34
:10178000F450EA266B0EE926000EEA22EE501418F9
:1017900009E1EE50151806E1EE50161803E1EE507F
:1017A000171800E108E1010EF36E0E0EF3CFDBFF18
:1017B0000F0EDFCFDBFFDF2A010E01E3DB2ABFD7ED
:1017C0000E0EDB500BE10F0E69C0DBFF050E695DED
:1017D000000E6A5903E2692B000E6A230F0EDBCF5D
:1017E00014F0050EE76E1418E8AE02D0E73402D00C
:1017F000E750145C01E3AED10F0EDBCFE9FFEA6ADC
:10180000E9BEEA68120EEA02F3CFEAFFE902F3CF7B
:10181000E9FFF450EA266B0EE926000EEA22040ED8
:10182000DBCFEEFF050EDBCFEEFF060EDBCFEEFFCC
:10183000070EDBCFEEFF000EE66E010EE66E71ECDA
:1018400009F0E552E552E66E0F0EDBCFE9FFEA6ADA
:10185000E9BEEA68120EEA02F3CFEAFFE902F3CF2B
:10186000E9FFF450EA266B0EE926000EEA22040E88
:10187000E926000EEA22E552E750EF6E0D0EDB047A
:10188000FC0BE842E842E76E100EE7CFDBFF0F0EDD
:10189000DBCFE9FFEA6AE9BEEA68120EEA02F3CF9B
:1018A000EAFFE902F3CFE9FFF450EA266B0EE926DE
:1018B000000EEA22050EE926000EEA22100EDBCF0A
:1018C000EFFFDE6ADD6ADECF14F0DDCF15F0100E1B
:1018D000DBCF16F0176A16BE176815501718E8AE5A
:1018E00002D0173404D01650145C1750155801E379
:1018F000B1D0080EDB6A090EDB6A0A0EDB6A0B0E3A
:10190000DB6A020EDB6A030EDB6A020EDBCF14F029
:10191000030EDBCF15F0D890155004E6040E145CCE
:10192000000E155850E2080EDBCF14F0090EDBCF85
:1019300015F00A0EDBCF16F00B0EDBCF17F0080EFA
:101940001F0B07E0D8901436153616361736E80602
:10195000F9E114C0E6FF15C0E6FF16C0E6FF17C0A8
:10196000E6FF000EE66E010EE66E71EC09F0E55240
:10197000E552E552E7CF17F0E552E7CF16F0E55212
:10198000E7CF15F0E552E7CF14F0186E196A1A6A1E
:101990001B6A18501426195015221A5016221B5073
:1019A0001722080E14C0DBFF090E15C0DBFF0A0E5C
:1019B00016C0DBFF0B0E17C0DBFF020EDB2A030E87
:1019C00001E3DB2AA2D7DECF14F0DDCF15F0D890EB
:1019D000155004E6030E145C000E155836E20F0E87
:1019E000DBCFE9FFEA6AE9BEEA68120EEA02F3CF4A
:1019F000EAFFE902F3CFE9FFF450EA266B0EE9268D
:101A0000000EEA22060EE926000EEA22E9CF14F0C3
:101A1000EACF15F0040E086E096ADECF0DF0DDCFB7
:101A20000EF00BEC0FF014500624E96E1550072051
:101A3000EA6E080EDBCFEEFF090EDBCFEEFF0A0EDB
:101A4000DBCFEEFF0B0EDBCFEEFFDF2A010E01E353
:101A5000DB2A39D70F0EDBCFE9FFEA6AE9BEEA6875
:101A6000120EEA02F3CFEAFFE902F3CFE9FFF450E6
:101A7000EA266B0EE926000EEA22040EE926000E85
:101A8000EA22EF50030848E10001010E646F0F0ED7
:101A9000DBCFE9FFEA6AE9BEEA68120EEA02F3CF99
:101AA000EAFFE902F3CFE9FFF450EA266B0EE926DC
:101AB000000EEA22060EE926000EEA22EECF65F0BD
:101AC000EECF66F0EECF67F0EFCF68F065C0E6FFCF
:101AD00066C0E6FF67C0E6FF68C0E6FF60C0E6FFDD
:101AE00061C0E6FF62C0E6FF63C0E6FF150E146E3C
:101AF0002D0E156E166A14C0E6FF15C0E6FF16C05F
:101B0000E6FFC50EE66E000EE66E82EC14F0176E70
:101B10000D0EE15E17501ED0DE6ADD6ADECF14F0D6
:101B2000DDCF15F00D0EDB50000115AE02D0D890C0
:101B300003D0145C000E15580DE2000EE66E010E87
:101B4000E66E71EC09F0E552E552DF2A010E01E381
:101B5000DB2AE4D7110EE15C02E2E16AE552E16EB4
:081B6000E552E7CFD9FF1200A6
:081B68000F7E016A15EC10F07C
:101B70002DEC10F001B6BDEF0FF001A20AD001AAC2
:101B800003D001BEBDEF0FF001A4C9EF0FF0C6EF07
:101B90000FF001AA05D001ACC9EF0FF0C6EF0FF0AE
:101BA00001A00AD001A808D001BE04D001A402D02F
:101BB000D2EF0FF0D6EF0FF0126A056A0F500A5CF1
:101BC000116E10E307C013F008C002F009C003F063
:101BD0000AC010F00CC007F00DC008F00EC009F0EC
:101BE000013A09D00CC013F00DC002F00EC003F092
:101BF0000FC010F0116C019E01BC018E10C004F0EA
:101C000001B005EF10F01A0E116005EF10F0046A34
:101C10000A6A01A408D0076C081E091E0A1EE86A99
:101C2000082209220A2201AC08D0136C021E031EEE
:101C3000041EE86A022203220422066A115207E007
:101C40000A340932083207320632112EF9D707500A
:101C5000132608500222095003220A50042206C00B
:101C600012F0019E04AE0BD0126C131E021E031E56
:101C7000041EE86A1322022203220422018E04A019
:101C800006D0D8800332023213321232102A10C02A
:101C900004F0D9EF0FF0016A15EC10F02DEC10F004
:101CA00001B6BDEF0FF001A205D001BABDEF0FF0F4
:101CB000C4EF0FF001BAD0EF0FF001A005D001B8CA
:101CC000BDEF0FF0D0EF0FF001B8C4EF0FF0056AD1
:101CD0007F0E0A24046EE86A05220F50045EE86A4B
:101CE000055A1A0E106E0A6A126A136A026A036AA9
:101CF0000C50075E0D50085A0E50095A000E0A5A31
:101D000009E70C5007260D5008220E500922000E3C
:101D10000A2201D0128AD8900736083609360A36C8
:101D2000D8901236133602360336102EE1D70950FA
:101D300008100710D8A4128AD9EF0FF0016A15EC29
:101D400010F02DEC10F001B6BDEF0FF001A205D0A0
:101D500001B8BDEF0FF0C4EF0FF001AA05D001B03C
:101D6000BDEF0FF0C4EF0FF001B002D001A802D018
:101D7000D0EF0FF0056A0F500A24046EE86A0522BE
:101D80007E0E045EE86A055A126A136A026A036AE2
:101D90000E500902F4CF03F0F3CF02F00D50090208
:101DA000F3501326F4500222000E03220E500802B4
:101DB000F3501326F4500222000E03220C500902A5
:101DC000F3501226F4501322000E022203220D506B
:101DD0000802F3501226F4501322000E02220322AE
:101DE0000E500702F3501226F4501322000E022266
:101DF00003220C500802F4501226000E1322022275
:101E000003220D500702F4501226000E1322022264
:101E10000322D9EF0FF009C013F008C012F00850E8
:101E20000D02F4CF07F0F3CF06F009500E02F4CF05
:101E300009F0F3CF08F00D02F3500726F450082202
:101E4000E86A092212500E02F3500726F4500822C5
:101E5000E86A09220EAE31EF0FF01250085E1350FF
:101E6000095A13AE000C0D50085E0E50095A000CB2
:101E7000016A15EC10F001B642EF0FF001A20AD092
:101E800001B403D07F0E096E19D0800E096E16D0F2
:101E9000096A14D001B0FCD7870E0A60F1D77E0E14
:101EA0000A64F6D7860E0A5C04E0D89009320A2A42
:101EB000F9D701A403D0096C09AEEAD7120068EC87
:101EC0000FF001B6000C01B0000C01B4000C010CC5
:101ED000016A15EC10F02DEC10F001B6120001AE05
:101EE00008D001A004D001A802D001801200019006
:101EF00012000F500A5C0BE10E50095C08E10D5016
:101F0000085C05E10C50075C02E101801200D8A0DA
:101F100002D0018E10D00A500FC00AF00F6E095087
:101F20000EC009F00E6E08500DC008F00D6E07507F
:101F30000CC007F00C6E0F500A5C10E0FF0F09E0B8
:101F4000019001B403D001AE0184120001AE0194EE
:101F500012000F2AD8900E320D320C320C50075E50
:101F60000D50085A0E50095A09BEEAD7D8900736C4
:101F7000083609360A2EF8D7C8D77F0E0A6EFF0E2C
:101F8000096E086E076E12007F0E01BEFF0E0A6E0C
:101F900002D07F0E0A6E800E096E086A076AF3D7B8
:101FA00001AE04D0800E0A6E096AF7D70A6A096A80
:101FB000F4D70350021013101210F8E005BEF0D74A
:101FC00003BE0CD004500510EBE0D8901236133647
:101FD000023603360406D8A00506F2D70550D4E130
:101FE0000428D2E012AE11D07F0E121402E113A029
:101FF0000CD0132AE86A0222032207E3D8800332B6
:1020000002321332042A0428BFE00450C9E013C08E
:1020100007F002C008F00334096E04300A6E09327A
:102020000A9E01BE0A8EC3EF0FF009360A3602E39C
:102030000184017E06E101800A6A096A086A076A6A
:1020400012000A2803E0D88009321200D890093221
:1020500002E101821200018612000E360F3602E301
:10206000018C017E06E101880F6A0E6A0D6A0C6A16
:1020700012000F2803E0D8800E321200D8900E32E2
:06208000EAE1018A1200F2
:0A208600DACFE4FFE2CFDAFFE9CF82
:10209000E4FFEACFE4FFF6CFE4FFF7CFE4FFF5CFAC
:1020A000E4FFF3CFE4FFF4CFE4FFFACFE4FF00EE68
:1020B00000F0140EE80403E3EECFE4FFFBD700EEDC
:1020C00014F00C0EE80403E3EECFE4FFFBD7E65276
:1020D000D9CFE6FFE1CFD9FF030EE1269EAA92D128
:1020E000AE50DF6E0001FE51070A01E176D1010A10
:1020F00001E1F8D0030A01E1A0D0010A6AE0070A71
:1021000034E0010A22E0030A1AE0010A01E07AD170
:10211000AA0EDF5C02E1010EFE6F0201006B016B93
:10212000026B036B046B056B066B076B086B096B2B
:102130000A6B0B6B0C6B0D6B0E6B0F6B63D1550E3B
:10214000DF5C02E1020EFE6F5DD102010E2B000E7C
:102150000F23080E0E1901E10F5106E10001030ED5
:10216000FE6F02010E6B0F6B4DD102010E2B000EA4
:102170000F23080E1F0B08C220F009C221F00AC26B
:1021800022F00BC223F007E0D89020362136223609
:102190002336E806F9E1DFCF24F0256A266A276AAC
:1021A000205024240201086F21502520096F22505D
:1021B00026200A6F235027200B6F020E0E1901E113
:1021C0000F5106E10001040EFE6F02010E6B0F6B52
:1021D00019D102010E2B000E0F23080E1F0B00C297
:1021E00020F001C221F002C222F003C223F007E076
:1021F000D8902036213622362336E806F9E1DFCFA3
:1022000024F0256A266A276A205024240201006FE0
:1022100021502520016F22502620026F23502720B5
:10222000036F040E0E1901E10F5106E10001050EC6
:10223000FE6F02010E6B0F6BE5D002010E2B000E3C
:102240000F23080E1F0B04C220F005C221F006C2A6
:1022500022F007C223F007E0D8902036213622363C
:102260002336E806F9E1DFCF24F0256A266A276ADB
:10227000205024240201046F21502520056F225094
:102280002620066F23502720076F040E0E1901E148
:102290000F5127E1E868041908E1E868051905E12C
:1022A000E868061902E1E868071912E0040EE96E11
:1022B000020EEA6EEE500001601909E1EE5061195C
:1022C00006E1EE50621903E1EE50631900E107E107
:1022D0000001060EFE6F02010E6B0F6B02D00001B3
:1022E000FE6B90D0DF5002010C6F0D6B020E0C19CB
:1022F00001E10D510AE0050E0C1901E10D5105E057
:10230000040E0C1901E10D5165E1010EDB6A020EAC
:10231000DB6A010EDBCF20F0020EDBCF21F0D8907C
:10232000215004E6040E205C000E21581DE2000E30
:10233000E66E010EE66E02010051E66EC3EC08F097
:10234000E552E552E552080E1F0B08E00201D89055
:102350000333023301330033E806F9E1010EDB2ACF
:10236000020E01E3DB2AD5D7000EE66E010EE66E03
:102370000CC2E6FFC3EC08F0E552E552E55208C294
:1023800020F009C221F00AC222F00BC223F0090E8C
:10239000205E000E215A225A235A20C00EF221C07C
:1023A0000FF2000EE66E010EE66E0EC2E6FFC3EC03
:1023B00008F0E552E552E5520201000ED8800E55B4
:1023C000000E0F5504E20001070EFE6F02D000015F
:1023D000FE6B02D00001FE6B15D0000EE66E010E02
:1023E000E66EDFCFE6FFC3EC08F0E552E552E552BA
:1023F00002010E07000E0F5B0E510F1102E10001EA
:10240000FE6B00D0030EE15C02E2E16AE552E16E90
:10241000E552E7CFD9FFE55200EE1FF00C0EE804BD
:1024200003E3E5CFEDFFFBD700EE13F0140EE80455
:1024300003E3E5CFEDFFFBD7E5CFFAFFE5CFF4FFF0
:10244000E5CFF3FFE5CFF5FFE5CFF7FFE5CFF6FFEB
:0E245000E5CFEAFFE5CFE9FFE5CFDAFF1100A7
:02245E00D9CFD4
:10246000E6FFE1CFD9FF020EE126FE0EDBCF14F02E
:10247000100EE76E1418E8AE02D0143403D0E75003
:10248000D880145418E3FE0EDBCF15F0153413E298
:10249000FD0EDBCF16F0020EE76E1618E8AE02D086
:1024A000163403D0E750D880165405E3FD0EDBCF79
:1024B00017F0173405E3020EF36EF46A76D075D088
:1024C000FE0EDBCF16F0176A16BE176816C0E6FFC1
:1024D00017C0E6FFFB0EDBCFE6FFFC0EDBCFE6FF0F
:1024E000F9EC14F0E552E552E552E7CF17F0E5526A
:1024F000E7CF16F0F3501624146EF4501720156E23
:10250000110ED8801454000E155411E2FE0EDBCFCC
:10251000E6FF100EE552D880E754010F146E156ADD
:1025200014BE156814C0DEFF15C0DDFF0ED0FB0E13
:10253000DBCFE6FFFC0EDBCFE6FFF9EC14F0E55253
:10254000E552F3CFDEFFF4CFDDFFFD0EDBCFE6FF7C
:10255000FE0EDBCFE6FFE6D8E552E552FB0EDBCF01
:10256000E6FFFC0EDBCFE6FFDFCFE6FFB3D8E55298
:10257000E552E552FE0EDBCFE6FF100EE552D880A5
:10258000E754010F146E156A14BE15681450DF1855
:1025900003E11550DE52DD1805E1010EF36EF46A19
:1025A00004D003D0F36AF46A00D0020EE15C02E2C8
:1025B000E16AE552E16EE552E7CFD9FF1200D9CFCB
:1025C000E6FFE1CFD9FFFE0EDBCFF3FFDB06F350D2
:1025D000000902E00000F7D7E552E7CFD9FF12006B
:1025E000D9CFE6FFE1CFD9FFE652FE0EDBCFF3FFF6
:1025F000DB06F35000090CE0040EDF6EDF50DF064F
:10260000000905E0FA0EE66EDADFE552F7D7EDD7FE
:10261000E552E552E7CFD9FF1200898200000000A1
:1026200089921200D9CFE6FFE1CFD9FF010EE66E05
:10263000D7DFE5528C6AFE0EDB380F0B0F0B8C12C6
:10264000ECDFF00E8C16FE0EDB500F0B8C12E5DF6C
:10265000E552E7CFD9FF1200D9CFE6FFE1CFD9FF8E
:10266000010EE66EBDDFE5528C6A8986010EE66ECC
:10267000A6DFE552FE0EDB380F0B0F0B8C12CDDF01
:10268000F00E8C16FE0EDB500F0B8C12C6DF8996F7
:10269000E552E7CFD9FF1200D9CFE6FFE1CFD9FF4E
:1026A000FD0EDBCFE9FFFE0EDBCFEAFFEF500EE0C1
:1026B000FD0EDBCFE9FFDB2AFE0EDBCFEAFF01E3F5
:1026C000DB2AEF50E66EC8DFE552EAD7E552E7CFE6
:1026D000D9FF1200D9CFE6FFE1CFD9FFFC0EDBCF47
:1026E000E9FFFD0EDBCFEAFFEF5013E0FE0EDB50FB
:1026F00010E0FE0EDB06FC0EDBCFE9FFDB2AFD0E51
:10270000DBCFEAFF01E3DB2AEF50E66EA5DFE552FF
:10271000E5D7E552E7CFD9FF1200010EE66E82DF62
:10272000E5521200D9CFE6FFE1CFD9FFFD0EDB5015
:10273000020808E1FE0EDB50400F800FE66E72DFEC
:10274000E55209D0FD0EDB0406E1FE0EDB50800FE2
:10275000E66E68DFE552E552E7CFD9FF12009294AA
:1027600092969292956A89940F0EE66E39DFE55241
:10277000030E8C6E52DF050EE66E32DFE552030E5D
:102780008C6E4BDFFA0EE66E1ADFE552030E8C6E8E
:1027900044DFFA0EE66E13DFE552020E8C6E3DDF6B
:1027A000FA0EE66E0CDFE552280EE66E3BDFE552D0
:1027B0000F0EE66E37DFE552B0DF060EE66E32DF53
:1027C000E552010EE66EE66AADDFE552E552120013
:1027D000D9CFE6FFE1CFD9FF020EE1260001010EBD
:1027E000606F616B626B636B646B65696669676977
:1027F0006869696B6A6BD950010FE66E000EDA20CA
:10280000E66ED9CFE6FFDACFE6FFE66AE66A160E95
:10281000E66E460EE66EE66AE66A800EE66E400EEC
:10282000E66E75EC07F0146E0C0EE15E14500108B4
:102830000FE0D20EE66E010EE66E020EE66E010E9F
:10284000E66E2FEC12F0E552E552E552E552FFD765
:10285000320EE66EE66A000EE66E010EE66EF6ECED
:1028600009F0E552E552E552E552F26A010EDBCF7E
:10287000E6FFE66A7C0EDF14E66EBDEC15F0E5526D
:10288000E552E5529F8AD08EF28EE20EE66E010E80
:10289000E66EED0EE66E000EE66ED8EC14F0E55234
:1028A000E552E552E55265C0E6FF66C0E6FF67C047
:1028B000E6FF68C0E6FF60C0E6FF61C0E6FF62C0F9
:1028C000E6FF63C0E6FF080E146E2D0E156E166A45
:1028D00014C0E6FF15C0E6FF16C0E6FFC50EE66EA3
:1028E000000EE66E82EC14F0176E0D0EE15E1750CE
:1028F000020EE15C02E2E16AE552E16EE552E7CFE9
:04290000D9FF1200E9
:0C290400D9CFE6FFDACFE6FFE1CFD9FF24
:10291000E2CFDAFFE652E652E652E652D950F90F1C
:10292000146EFF0EDA20156E020E14C0DBFF030ECC
:1029300015C0DBFF020EDBCFE6FF030EDBCFE6FFA9
:10294000F90EDBCFE6FFFA0EDBCFE6FFFB0EDBCFA7
:10295000E6FFD950FC0FE66EFF0EDA20E66E2AEC99
:1029600000F0146E070EE15C02E2E16AE552E16EEE
:102970001450F3CFDEFFF4CFDDFFFC0EDBCFE9FF19
:10298000FD0EDBCFEAFFEF6ADECF14F0DDCF15F0EE
:1029900014C0F3FF15C0F4FF040EE15C02E2E16A2B
:1029A000E552E16EE552E5CFDAFFE7CFD9FF12003D
:1029B000D9CFE6FFDACFE6FFFA0EE3CFD9FFFB0E61
:1029C000E3CFDAFFFC0EE3CFE9FFFD0EE3CFEAFF32
:1029D000E9CFF3FFEACFF4FFDECFEFFFEE66FCD7DF
:1029E000FF0EE3CFDAFFE552FF0EE3CFD9FFE5524A
:1029F0001200FE0EE3CFE9FFFF0EE3CFEAFFF36A1A
:102A0000F46AEE5203E0F34AF42AFBD71200FF0EF9
:102A1000E3CFF8FFE552FF0EE3CFF7FFE552FF0EDD
:102A2000E3CFF6FFE552E66AE66AE66A0900F55288
:102A300009E0FD0EE32A05E1FE0EE32A02E1FF0EA6
:102A4000E32AF4D7FD0EE3CF07F0FE0EE3CF08F044
:082A5000FF0EE3CF09F01200B4
:082A58000E0EF66E000EF76E83
:102A6000000EF86E01010900F550F86F0900F550ED
:102A7000F96F03E1F86701D03DD00900F550F36F1D
:102A80000900F550F46F0900F550F56F09000900D1
:102A9000F550E96E0900F550EA6E090009000900D9
:102AA000F550F66F0900F550F76F09000900F6CFF1
:102AB000FAF1F7CFFBF1F8CFFCF1F3C1F6FFF4C167
:102AC000F7FFF5C1F8FF0101F65302E1F75307E004
:102AD0000900F550EE6EF607F8E2F707F9D7FAC1EC
:102AE000F6FFFBC1F7FFFCC1F8FF0101F807000E7C
:062AF000F95BBFD71200E4
:0A2AF600D9CFE6FFDACFE6FFE1CF0B
:102B0000D9FFE2CFDAFFFB0EDBCF14F0FC0EDBCFF8
:102B100015F00001800E15141AE1FB0EDBCFE9FF62
:102B2000FC0EDBCFEAFFEECFF3FFEDCFF4FFEE2A92
:102B3000000EEF22F3CFE9FFF4CFEAFFFD0EDBCF6B
:102B4000EFFFEF50156AF36E15C0F4FF10D0FB0EC7
:102B5000DB50FE0806E1FD0EDBCFE6FF76EC16F05B
:102B600005D0FD0EDBCFE6FF03EC00F0E552E552A9
:0A2B7000E5CFDAFFE7CFD9FF12002E
:062B7A00D9CFE6FFDACF1F
:102B8000E6FFE1CFD9FFE2CFDAFFAC6AAB6AFD0E18
:102B9000DBB0AC88DBA202D0AC8CAB8CDBB4AC8EEF
:102BA000DBA602D0AB8801D0AB8ADBA802D0AC8414
:102BB00001D0AC949E98DBAC02D09D8A01D09D9A46
:102BC0009E9ADBAE02D09D8801D09D98FB0EDB5013
:102BD000AF6EAC8AAB8E949C948EAC50100B04E01C
:102BE000AC50800B01E1948CE552E5CFDAFFE7CFE2
:042BF000D9FF1200F7
:0C2BF40006500B02F3CF02F0F4CF03F008
:102C00000C02F3500326000EF420046E06500D0251
:102C1000F3500426000EF420056E06500E02F35009
:102C2000052607500B02F3500326F4500422000E31
:102C3000052207500C02F3500426F45005220750D9
:102C40000D02F350052608500B02F3500426F450F1
:102C5000052208500C02F350052609500B02F350D0
:042C60000526120033
:0C2C6400056A046A036A026A200EE76E2B
:102C7000D89006360736083609360236033604364B
:102C800005360B50025C0C5003580D5004580E5082
:102C9000055809E30B50025E0C50035A0D50045ABC
:0C2CA0000E50055A062AE72EE4D7120059
:042CAC00F36AF46A69
:102CB000FF0EE124E96EFF0EE220EA6EED6607D01A
:102CC0002F0EEF6404D03A0EEF6001D0F32A120009
:102CD00015EE00F025EE00F0F86A019C2CEC15F0E2
:0C2CE000ABEC16F091EC16F0FBD71200E4
:042CEC00FF0EE350A4
:102CF000ACBA04D0AF6AAB8EAC8A949CACA2FED7BF
:082D0000AD6EF36EF46A1200DF
:082D0800416723256C64204E95
:102D100020256C6400416723256C64205320256CBA
:022D200064004D
:0E2D2200E8EC13F056EC0AF098EC0AF01CEC0A
:062D30000BF0FDD71200BC
:0A2D36003031323334353637383986
:072D40006162636465660037
:012D4700008B
:082D480000EE00F00F0EEE6A30
:062D5000EA62FDD712004B
:022D5600120069
:082D580065727265757220625C
:102D6000617564726174650020202020202020207D
:092D70002020202020202020005A
:00000001FF
