:020000040000FA
:0600000093EF0BF012006B
:020006001200E6
:0600080022EF06F01200D9
:02000E000200EE
:100010006D170000EB000000100000006C170000DE
:08002000FB00000001000000DC
:08002800D9CFE6FFE1CFD9FFBB
:10003000020EE126BCD8D950FB0FE96EFF0EDA2084
:10004000EA6EEECFE6FFEECFE6FFEECFE6FFEFCFB4
:10005000E6FFDAD8E552E552E552E552D950F70FFE
:10006000E96EFF0EDA20EA6EEECFE6FFEECFE6FF96
:10007000EECFE6FFEFCFE6FFC7D8E552E552E552F7
:10008000E552F50EDBCFE9FFF60EDBCFEAFFEECF50
:10009000E6FFEFCFE6FF94D8E552E552F50EDBCF51
:1000A000E9FFF60EDBCFEAFF020EE926000EEA2298
:1000B000EECFE6FFEECFE6FFEECFE6FFEFCFE6FFB7
:1000C000A3D8E552E552E552E552F50EDBCFE9FF44
:1000D000F60EDBCFEAFF060EE926000EEA22EECF8F
:1000E000E6FFEECFE6FFEECFE6FFEFCFE6FF8CD8E0
:1000F000E552E552E552E552F50EDBCFE9FFF60E8B
:10010000DBCFEAFF0A0EE926000EEA22EF50E66E88
:1001100041D8E552DE6ADD6ADECF14F0DDCF15F09E
:10012000F50EDBCFE9FFF60EDBCFEAFFEECF16F0E0
:10013000EFCF17F0090E165E000E175A1650145C1A
:10014000175015581DE2F50EDBCFE9FFF60EDBCF99
:10015000EAFF0B0EE926000EEA22E9CF14F0EACFFF
:1001600015F0DE501424E96EDD501520EA6EEF50D4
:10017000E66E10D8E552DF2A010E01E3DB2ACCD768
:10018000020EE15C02E2E16AE552E16EE552E7CF80
:10019000D9FF1200D9CFE6FFE1CFD9FF9EA8FED745
:1001A000FE0EDB50AD6EE552E7CFD9FF1200AA0E6E
:1001B000E66EF0DFE552550EE66EECDFE55212001A
:1001C000D9CFE6FFE1CFD9FFFD0EDBCF14F0FE0E55
:1001D000DBCF15F015C014F0156A1450E66EDADFA7
:1001E000E552FF0EE76EFD0EDBCF14F0FE0EDBCF07
:1001F00015F0E7501416156A1450E66ECBDFE55281
:10020000E552E7CFD9FF1200D9CFE6FFE1CFD9FF02
:10021000FB0EDBCF14F0FC0EDBCF15F0FD0EDBCFB9
:1002200016F0FE0EDBCF17F0180ED89017321632EC
:1002300015321432E806F9E11450E66EABDFE552F0
:10024000FB0EDBCF14F0FC0EDBCF15F0FD0EDBCF89
:1002500016F0FE0EDBCF17F0100ED89017321632C4
:1002600015321432E806F9E11450E66E93DFE552D8
:10027000FB0EDBCF14F0FC0EDBCF15F0FD0EDBCF59
:1002800016F0FE0EDBCF17F0080ED890173216329C
:1002900015321432E806F9E11450E66E7BDFE552C0
:1002A000FB0EDBCF14F0FC0EDBCF15F0FD0EDBCF29
:1002B00016F0FE0EDBCF17F01450E66E6BDFE55242
:1002C000E552E7CFD9FF1200D9CFE6FFE1CFD9FF42
:1002D000040EE126FB0EDBCF1CF0FC0EDBCF1DF085
:1002E000FD0EDBCF1EF0FE0EDBCF1FF00A6A240EE0
:1002F0000B6E740E0C6E490E0D6E1CC005F01DC009
:1003000006F01EC007F01FC008F0AAEC04F0F70EBC
:10031000DBCF0AF0F80EDBCF0BF0F90EDBCF0CF0E1
:10032000FA0EDBCF0DF057EC04F005C018F006C054
:1003300019F007C01AF008C01BF00A6A0B6A800E99
:100340000C6E410E0D6E18C005F019C006F01AC0F3
:1003500007F01BC008F057EC04F005C014F006C00D
:1003600015F007C016F008C017F00A6A0B6A800E75
:100370000C6E3F0E0D6E14C005F015C006F016C0D1
:1003800007F017C008F0C0EC03F005C0DEFF06C0A0
:10039000DEFF07C0DEFF08C0DDFFDD52DD52D9CF32
:1003A000E9FFDACFEAFFEECF14F0EECF15F0EECF93
:1003B00016F0EFCF17F00A6A0B6A7F0E0C6E430E31
:1003C0000D6E14C005F015C006F016C007F017C07A
:1003D00008F03EEC05F0010A01E098D0D9CFE9FF22
:1003E000DACFEAFFEECF1CF0EECF1DF0EECF1EF01D
:1003F000EFCF1FF00A6A0B6A800E0C6E3F0E0D6E77
:100400001CC005F01DC006F01EC007F01FC008F09C
:10041000C1EC03F005C018F006C019F007C01AF0CF
:1004200008C01BF00A6A0B6A800E0C6E400E0D6E3F
:1004300018C005F019C006F01AC007F01BC008F07C
:1004400057EC04F005C014F006C015F007C016F014
:1004500008C017F00A6A0B6A800E0C6E3F0E0D6E14
:1004600014C005F015C006F016C007F017C008F05C
:10047000C0EC03F005C0DEFF06C0DEFF07C0DEFFF4
:1004800008C0DDFFDD52DD52D9CFE9FFDACFEAFF48
:10049000EECF14F0EECF15F0EECF16F0EFCF17F051
:1004A0000A6A0B6A7F0E0C6E430E0D6E14C005F0C7
:1004B00015C006F016C007F017C008F03EEC05F0B6
:1004C000010A03E1000E42D041D0F50EDBCFE9FF77
:1004D000F60EDBCFEAFFEF0EEF6EDECF05F0DECFDC
:1004E00006F0DECF07F0DDCF08F0DD52DD5217EC6D
:1004F00005F00750E66EF30EDBCFE9FFF40EDBCF1D
:10050000EAFFE552E750EF6E010E20D0F50EDBCF8B
:10051000E9FFF60EDBCFEAFFEF68DECF05F0DECFB6
:1005200006F0DECF07F0DDCF08F0DD52DD5217EC2C
:1005300005F00750E66EF30EDBCFE9FFF40EDBCFDC
:10054000EAFFE552E750EF6E010E00D0146E040E84
:10055000E15C02E2E16AE552E16E1450E552E7CF58
:10056000D9FF1200D9CFE6FFE1CFD9FFFC0EDBCFD8
:10057000E9FFFD0EDBCFEAFF040EE926000EEA22BA
:10058000EECF14F0EFCF15F0FC0EDBCFE9FFFD0E40
:10059000DBCFEAFF060EE926000EEA22EECF16F0C8
:1005A000EFCF17F01650141802E1175015180DE18F
:1005B000FC0EDBCFE9FFFD0EDBCFEAFF080EE926DC
:1005C000000EEA22EE2AEF2277D0FC0EDBCFE9FF05
:1005D000FD0EDBCFEAFF020EE926000EEA22EE5006
:1005E000EFCFEAFFE96EFE0EDBCFEFFFFC0EDBCFB5
:1005F000E9FFFD0EDBCFEAFF040EE926000EEA223A
:10060000EE2AEF22FC0EDBCFE9FFFD0EDBCFEAFF87
:10061000020EE926000EEA22EE2AEF22FC0EDBCFC4
:10062000E9FFFD0EDBCFEAFF020EE926000EEA220B
:10063000EECF14F0EFCF15F0FC0EDBCFE9FFFD0E8F
:10064000DBCFEAFF0A0EE926000EEA22E9CF18F016
:10065000EACF19F0FC0EDBCFE9FFFD0EDBCFEAFF9E
:10066000060EE926000EEA221850EE24166E1950E6
:10067000EE20176E1650141802E1175015181CE1E1
:10068000FC0EDBCFE9FFFD0EDBCFEAFF0A0EE92609
:10069000000EEA22E9CF14F0EACF15F0FC0EDBCF12
:1006A000E9FFFD0EDBCFEAFF020EE926000EEA228B
:1006B00014C0EEFF15C0EDFFE552E7CFD9FF1200E1
:1006C000D9CFE6FFE1CFD9FFFD0EDBCFE9FFFE0E6C
:1006D000DBCFEAFF040EEB6A050EEB6AFD0EDBCF03
:1006E000E9FFFE0EDBCFEAFF080EEB6A090EEB6AAC
:1006F000FD0EDBCFE9FFFE0EDBCFEAFF060EE9269B
:10070000000EEA22FB0EDBCFEEFFFC0EDBCFEDFF8F
:10071000FD0EDBCFE9FFFE0EDBCFEAFF0A0EE92676
:10072000000EEA22E9CF14F0EACF15F0FD0EDBCF80
:10073000E9FFFE0EDBCFEAFF020EE926000EEA22F9
:1007400014C0EEFF15C0EDFFFD0EDBCFE9FFFE0E7E
:10075000DBCFEAFF0A0EE926000EEA22E9CF14F009
:10076000EACF15F0FD0EDBCFE9FFFE0EDBCFEAFF8F
:1007700014C0EEFF15C0EDFFE552E7CFD9FF120020
:100780000D7E0F6AF4EC05F00CEC06F00FB69CEF52
:1007900005F00FA20AD00FAA03D00FBE9CEF05F000
:1007A0000FA4A8EF05F0A5EF05F00FAA05D00FAC38
:1007B000A8EF05F0A5EF05F00FA00AD00FA808D00C
:1007C0000FBE04D00FA402D0B1EF05F0B5EF05F0D5
:1007D000126A036A0D50085C116E10E305C013F035
:1007E00006C000F007C001F008C010F00AC005F014
:1007F0000BC006F00CC007F00F3A09D00AC013F086
:100800000BC000F00CC001F00DC010F0116C0F9E79
:100810000FBC0F8E10C002F00FB0E4EF05F01A0EFF
:100820001160E4EF05F0026A086A0FA408D0056CB5
:10083000061E071E081EE86A0622072208220FACC1
:1008400008D0136C001E011E021EE86A002201225D
:100850000222046A115207E00834073206320532D8
:100860000432112EF9D705501326065000220750E6
:1008700001220850022204C012F00F9E02AE0BD0DB
:10088000126C131E001E011E021EE86A13220022B3
:10089000012202220F8E02A006D0D880013200323F
:1008A00013321232102A10C002F0B8EF05F00F6AAE
:1008B000F4EC05F00CEC06F00FB69CEF05F00FA27F
:1008C00005D00FBA9CEF05F0A3EF05F00FBAAFEF1C
:1008D00005F00FA005D00FB89CEF05F0AFEF05F0C5
:1008E0000FB8A3EF05F0036A7F0E0824026EE86AD2
:1008F00003220D50025EE86A035A1A0E106E086A4F
:10090000126A136A006A016A0A50055E0B50065AA1
:100910000C50075A000E085A09E70A5005260B50DA
:1009200006220C500722000E082201D0128AD8900D
:100930000536063607360836D89012361336003696
:100940000136102EE1D7075006100510D8A4128AE0
:10095000B8EF05F00F6AF4EC05F00CEC06F00FB6FA
:100960009CEF05F00FA205D00FB89CEF05F0A3EFA8
:1009700005F00FAA05D00FB09CEF05F0A3EF05F02E
:100980000FB002D00FA802D0AFEF05F0036A0D50F0
:100990000824026EE86A03227E0E025EE86A035AA9
:1009A000126A136A006A016A0C500702F4CF01F060
:1009B000F3CF00F00B500702F3501326F45000223F
:1009C000000E01220C500602F3501326F4500022B0
:1009D000000E01220A500702F3501226F45013228F
:1009E000000E002201220B500602F3501226F45092
:1009F0001322000E002201220C500502F350122691
:100A0000F4501322000E002201220A500602F45074
:100A10001226000E1322002201220B500502F45070
:100A20001226000E132200220122B8EF05F00F6AF1
:100A3000F4EC05F00FB621EF05F00FA20AD00FB4C9
:100A400003D07F0E076E19D0800E076E16D0076A8E
:100A500014D00FB0FCD7870E0860F1D77E0E086463
:100A6000F6D7860E085C04E0D8900732082AF9D73A
:100A70000FA403D0076C07AEEAD7120047EC05F0CD
:100A80000FB6000C0FB0000C0FB4000C010C0F6A75
:100A9000F4EC05F00CEC06F00FB612000FAE08D027
:100AA0000FA004D00FA802D00F8012000F901200E8
:100AB0000D50085C0BE10C50075C08E10B50065C24
:100AC00005E10A50055C02E10F801200D8A002D0B7
:100AD0000F8E10D008500DC008F00D6E07500CC0DE
:100AE00007F00C6E06500BC006F00B6E05500AC0E6
:100AF00005F00A6E0D50085C10E0FF0F09E00F9042
:100B00000FB403D00FAE0F8412000FAE0F9412007B
:100B10000D2AD8900C320B320A320A50055E0B5067
:100B2000065A0C50075A07BEEAD7D8900536063643
:100B30000736082EF8D7C8D77F0E086EFF0E076E4F
:100B4000066E056E12007F0E0FBEFF0E086E02D0FD
:100B50007F0E086E800E076E066A056AF3D70FAE29
:100B600004D0800E086E076AF7D7086A076AF4D7C0
:100B70000150001013101210F8E003BEF0D701BEB0
:100B80000CD002500310EBE0D8901236133600362A
:100B900001360206D8A00306F2D70350D4E102289A
:100BA000D2E012AE11D07F0E121402E113A00CD0CD
:100BB000132AE86A0022012207E3D88001320032BA
:100BC0001332022A0228BFE00250C9E013C005F028
:100BD00000C006F00134076E0230086E0732089E2E
:100BE0000FBE088EA2EF05F00736083602E30F8429
:100BF0000F7E06E10F80086A076A066A056A12001E
:100C0000082803E0D88007321200D890073202E1AA
:100C10000F8212000F8612000C360D3602E30F8C85
:100C20000F7E06E10F880D6A0C6A0B6A0A6A1200D1
:100C30000D2803E0D8800C321200D8900C32EAE183
:040C40000F8A120005
:0C0C4400DACFE4FFE2CFDAFFE9CFE4FFF3
:100C5000EACFE4FFF6CFE4FFF7CFE4FFF5CFE4FF00
:100C6000F3CFE4FFF4CFE4FFFACFE4FF00EE00F0AF
:100C7000140EE80403E3EECFE4FFFBD700EE14F01C
:100C80000C0EE80403E3EECFE4FFFBD7E652D9CF26
:100C9000E6FFE1CFD9FF030EE1269EAA92D1AE5026
:100CA000DF6E0001FB51070A01E176D1010A01E183
:100CB000F8D0030A01E1A0D0010A6AE0070A34E093
:100CC000010A22E0030A1AE0010A01E07AD1AA0E21
:100CD000DF5C02E1010EFB6F0001DB6BDC6BDD6BA7
:100CE000DE6BDF6BE06BE16BE26BE36BE46BE56BA0
:100CF000E66BE76BE86BE96BEA6B63D1550EDF5C83
:100D000002E1020EFB6F5DD10001E92B000EEA2328
:100D1000080EE91901E1EA5106E10001030EFB6F3B
:100D20000001E96BEA6B4DD10001E92B000EEA23CB
:100D3000080E1F0BE3C020F0E4C021F0E5C022F054
:100D4000E6C023F007E0D89020362136223623363D
:100D5000E806F9E1DFCF24F0256A266A276A2050E9
:100D600024240001E36F21502520E46F2250262027
:100D7000E56F23502720E66F020EE91901E1EA51E1
:100D800006E10001040EFB6F0001E96BEA6B19D16B
:100D90000001E92B000EEA23080E1F0BDBC020F038
:100DA000DCC021F0DDC022F0DEC023F007E0D890E7
:100DB0002036213622362336E806F9E1DFCF24F04B
:100DC000256A266A276A205024240001DB6F2150FF
:100DD0002520DC6F22502620DD6F23502720DE6F78
:100DE000040EE91901E1EA5106E10001050EFB6F6D
:100DF0000001E96BEA6BE5D00001E92B000EEA2364
:100E0000080E1F0BDFC020F0E0C021F0E1C022F08F
:100E1000E2C023F007E0D890203621362236233670
:100E2000E806F9E1DFCF24F0256A266A276A205018
:100E300024240001DF6F21502520E06F225026205E
:100E4000E16F23502720E26F040EE91901E1EA5116
:100E500027E1E868DF1908E1E868E01905E1E868DA
:100E6000E11902E1E868E21912E0DF0EE96E000E16
:100E7000EA6EEE500001601909E1EE50611906E1D9
:100E8000EE50621903E1EE50631900E107E1000141
:100E9000060EFB6F0001E96BEA6B02D00001FB6BF1
:100EA00090D0DF500001E76FE86B020EE71901E117
:100EB000E8510AE0050EE71901E1E85105E0040EEA
:100EC000E71901E1E85165E1010EDB6A020EDB6A18
:100ED000010EDBCF20F0020EDBCF21F0D8902150A5
:100EE00004E6040E205C000E21581DE2C70EE66EDB
:100EF000000EE66E0001DB51E66EB2EC02F0E55248
:100F0000E552E552080E1F0B08E00001D890DE33D1
:100F1000DD33DC33DB33E806F9E1010EDB2A020EB8
:100F200001E3DB2AD5D7C70EE66E000EE66EE7C0FA
:100F3000E6FFB2EC02F0E552E552E552E3C020F0E4
:100F4000E4C021F0E5C022F0E6C023F0090E205EE7
:100F5000000E215A225A235A20C0E9F021C0EAF09B
:100F6000C70EE66E000EE66EE9C0E6FFB2EC02F0D8
:100F7000E552E552E5520001000ED880E955000E19
:100F8000EA5504E20001070EFB6F02D00001FB6B83
:100F900002D00001FB6B15D0C70EE66E000EE66EA8
:100FA000DFCFE6FFB2EC02F0E552E552E552000178
:100FB000E907000EEA5BE951EA1102E10001FB6B6F
:100FC00000D0030EE15C02E2E16AE552E16EE55217
:100FD000E7CFD9FFE55200EE1FF00C0EE80403E363
:100FE000E5CFEDFFFBD700EE13F0140EE80403E3AA
:100FF000E5CFEDFFFBD7E5CFFAFFE5CFF4FFE5CF77
:10100000F3FFE5CFF5FFE5CFF7FFE5CFF6FFE5CF3F
:0C101000EAFFE5CFE9FFE5CFDAFF1100B1
:04101C00D9CFE6FF43
:10102000E1CFD9FF020EE126FE0EDBCF14F0100E49
:10103000E76E1418E8AE02D0143403D0E750D8801D
:10104000145418E3FE0EDBCF15F0153413E2FD0E39
:10105000DBCF16F0020EE76E1618E8AE02D016349B
:1010600003D0E750D880165405E3FD0EDBCF17F010
:10107000173405E3020EF36EF46A76D075D0FE0ED7
:10108000DBCF16F0176A16BE176816C0E6FF17C04A
:10109000E6FFFB0EDBCFE6FFFC0EDBCFE6FFA1ECAD
:1010A0000BF0E552E552E552E7CF17F0E552E7CFF6
:1010B00016F0F3501624146EF4501720156E110E0E
:1010C000D8801454000E155411E2FE0EDBCFE6FF5B
:1010D000100EE552D880E754010F146E156A14BE45
:1010E000156814C0DEFF15C0DDFF0ED0FB0EDBCF90
:1010F000E6FFFC0EDBCFE6FFA1EC0BF0E552E5527C
:10110000F3CFDEFFF4CFDDFFFD0EDBCFE6FFFE0EFB
:10111000DBCFE6FFE6D8E552E552FB0EDBCFE6FF7C
:10112000FC0EDBCFE6FFDFCFE6FFB3D8E552E5529A
:10113000E552FE0EDBCFE6FF100EE552D880E754F5
:10114000010F146E156A14BE15681450DF1803E100
:101150001550DE52DD1805E1010EF36EF46A04D07D
:1011600003D0F36AF46A00D0020EE15C02E2E16AA5
:10117000E552E16EE552E7CFD9FF1200D9CFE6FF85
:10118000E1CFD9FFFE0EDBCFF3FFDB06F350000902
:1011900002E00000F7D7E552E7CFD9FF1200D9CF20
:1011A000E6FFE1CFD9FFE652FE0EDBCFF3FFDB0611
:1011B000F35000090CE0040EDF6EDF50DF0600097B
:1011C00005E0FA0EE66EDADFE552F7D7EDD7E55225
:1011D000E552E7CFD9FF1200898200000000899212
:1011E0001200D9CFE6FFE1CFD9FF010EE66ED7DFBF
:1011F000E5528C6AFE0EDB380F0B0F0B8C12ECDF06
:10120000F00E8C16FE0EDB500F0B8C12E5DFE55254
:10121000E7CFD9FF1200D9CFE6FFE1CFD9FF010E0A
:10122000E66EBDDFE5528C6A8986010EE66EA6DFAA
:10123000E552FE0EDB380F0B0F0B8C12CDDFF00EDC
:101240008C16FE0EDB500F0B8C12C6DF8996E55212
:10125000E7CFD9FF1200D9CFE6FFE1CFD9FFFD0ECE
:10126000DBCFE9FFFE0EDBCFEAFFEF500EE0FD0E15
:10127000DBCFE9FFDB2AFE0EDBCFEAFF01E3DB2A4F
:10128000EF50E66EC8DFE552EAD7E552E7CFD9FF67
:101290001200D9CFE6FFE1CFD9FFFC0EDBCFE9FF8B
:1012A000FD0EDBCFEAFFEF5013E0FE0EDB5010E047
:1012B000FE0EDB06FC0EDBCFE9FFDB2AFD0EDBCFEB
:1012C000EAFF01E3DB2AEF50E66EA5DFE552E5D742
:1012D000E552E7CFD9FF1200010EE66E82DFE5523C
:1012E0001200D9CFE6FFE1CFD9FFFD0EDB50020897
:1012F00008E1FE0EDB50400F800FE66E72DFE55214
:1013000009D0FD0EDB0406E1FE0EDB50800FE66E19
:1013100068DFE552E552E7CFD9FF1200929492962A
:101320009292956A89940F0EE66E39DFE552030EAC
:101330008C6E52DF050EE66E32DFE552030E8C6EC8
:101340004BDFFA0EE66E1ADFE552030E8C6E44DFB9
:10135000FA0EE66E13DFE552020E8C6E3DDFFA0EDA
:10136000E66E0CDFE552280EE66E3BDFE5520F0E0F
:10137000E66E37DFE552B0DF060EE66E32DFE5528D
:0E138000010EE66EE66AADDFE552E5521200A0
:02138E00D9CFB5
:10139000E6FFE1CFD9FF290EE126090EDE6EDD6AF8
:1013A000020E60C0DBFF030E61C0DBFF040E62C0F3
:1013B000DBFF050E63C0DBFF060EDB68070EDB6894
:1013C000080EDB68090EDB68010EF36E0A0EF3CF20
:1013D000DBFFD9CFE6FFDACFE6FFE668E668E6682E
:1013E000E66860C0E6FF61C0E6FF62C0E6FF63C07A
:1013F000E6FF14EC00F0146E0A0EE15E1450290EA4
:10140000E15C02E2E16AE552E16EE552E7CFD9FF25
:101410001200D9CFE6FFE1CFD9FF290EE126020E57
:1014200060C0DBFF030E61C0DBFF040E62C0DBFFA8
:10143000050E63C0DBFF060EDB68070EDB68080ED7
:10144000DB68090EDB68040EF36E0A0EF3CFDBFFD8
:101450000B0E64C0DBFF00016451010A07E0010AC2
:1014600001E03BD00A0EDE6EDD6A37D00E0EDE6E76
:10147000DD6A65C014F066C015F067C016F068C07C
:1014800017F0180ED8901732163215321432E806BB
:10149000F9E11450E76E0C0EE7CFDBFF67C014F0E4
:1014A00068C015F00001166A176A1450E76E0D0E39
:1014B000E7CFDBFF66C014F067C015F068C016F018
:1014C000176A1450E76E0E0EE7CFDBFF000165517F
:1014D000E76E0F0EE7CFDBFF00D0D9CFE6FFDACF04
:1014E000E6FFE668E668E668E66860C0E6FF61C0B9
:1014F000E6FF62C0E6FF63C0E6FF14EC00F0146E86
:101500000A0EE15E1450290EE15C02E2E16AE55246
:0A151000E16EE552E7CFD9FF1200AB
:06151A00D9CFE6FFE1CF8E
:10152000D9FF020EE1260001010E606F616B626B54
:10153000636B646B6569666967696869696B6A6B27
:101540006B6B6C6BD950010FE66E000EDA20E66E05
:10155000D9CFE6FFDACFE6FFE66AE66A160EE66E58
:10156000460EE66EE66AE66A800EE66E400EE66EAF
:1015700064EC01F0146E0C0EE15E145001080FE0F3
:10158000EB0EE66E000EE66E020EE66E010EE66EE5
:101590000EEC08F0E552E552E552E552FFD7C80ED1
:1015A000E66EE66AC70EE66E000EE66E60EC03F0CD
:1015B000E552E552E552E552F26A010EDBCFE6FF55
:1015C000E66A7C0EDF14E66E45EC0BF0E552E55260
:1015D000E5529F8AD08EF28E020EE15C02E2E16A51
:0C15E000E552E16EE552E7CFD9FF1200A2
:0415EC000E0EF66E7B
:1015F000000EF76E000EF86E01010900F550056F40
:101600000900F550066F03E1056701D03DD00900E0
:10161000F550006F0900F550016F0900F550026F99
:1016200009000900F550E96E0900F550EA6E09005D
:1016300009000900F550036F0900F550046F090017
:101640000900F6CF07F1F7CF08F1F8CF09F100C193
:10165000F6FF01C1F7FF02C1F8FF0101035302E1E8
:10166000045307E00900F550EE6E0307F8E20407A3
:10167000F9D707C1F6FF08C1F7FF09C1F8FF01015B
:0A1680000507000E065BBFD712003D
:06168A00D9CFE6FFDACF24
:10169000E6FFE1CFD9FFE2CFDAFFAC6AAB6AFD0E1D
:1016A000DBB0AC88DBA202D0AC8CAB8CDBB4AC8EF4
:1016B000DBA602D0AB8801D0AB8ADBA802D0AC8419
:1016C00001D0AC949E98DBAC02D09D8A01D09D9A4B
:1016D0009E9ADBAE02D09D8801D09D98FB0EDB5018
:1016E000AF6EAC8AAB8E949C948EAC50100B04E021
:1016F000AC50800B01E1948CE552E5CFDAFFE7CFE7
:04170000D9FF1200FB
:0C1704008DEC0AF00001010E646F440E31
:10171000656F330E666F220E676F110E686F09ECEE
:061720000AF0FFD71200E1
:0A17260015EE00F025EE00F0F86A61
:101730000F9CF6EC0AF003EC00F082EC0BF0FBD708
:02174000120095
:0E174200FE0EE3CFE9FFFF0EE3CFEAFFF36AEE
:0E175000F46AEE5203E0F34AF42AFBD71200CB
:02175E0000EE9B
:0C17600000F00F0EEE6AEA62FDD71200E6
:01176C00007C
:03176D0065727230
:0D17700065757220626175647261746500B8
:00000001FF
