:020000040000FA
:060000007FEF08F0120082
:0A000600010046110000C7000000D1
:0400100010000000DC
:0C001400D9CFE6FFE1CFD9FF020EE126B4
:10002000BCD8D950FB0FE96EFF0EDA20EA6EEECF96
:10003000E6FFEECFE6FFEECFE6FFEFCFE6FFDAD842
:10004000E552E552E552E552D950F70FE96EFF0E41
:10005000DA20EA6EEECFE6FFEECFE6FFEECFE6FF68
:10006000EFCFE6FFC7D8E552E552E552E552F50E6F
:10007000DBCFE9FFF60EDBCFEAFFEECFE6FFEFCFF7
:10008000E6FF94D8E552E552F50EDBCFE9FFF60E18
:10009000DBCFEAFF020EE926000EEA22EECFE6FFF2
:1000A000EECFE6FFEECFE6FFEFCFE6FFA3D8E552B7
:1000B000E552E552E552F50EDBCFE9FFF60EDBCF58
:1000C000EAFF060EE926000EEA22EECFE6FFEECFAB
:1000D000E6FFEECFE6FFEFCFE6FF8CD8E552E55224
:1000E000E552E552F50EDBCFE9FFF60EDBCFEAFF76
:1000F0000A0EE926000EEA22EF50E66E41D8E552DC
:10010000DE6ADD6ADECF14F0DDCF15F0F50EDBCF51
:10011000E9FFF60EDBCFEAFFEECF16F0EFCF17F0D8
:10012000090E165E000E175A1650145C175015581B
:100130001DE2F50EDBCFE9FFF60EDBCFEAFF0B0E7B
:10014000E926000EEA22E9CF14F0EACF15F0DE50DE
:100150001424E96EDD501520EA6EEF50E66E10D8DB
:10016000E552DF2A010E01E3DB2ACCD7020EE15C67
:1001700002E2E16AE552E16EE552E7CFD9FF1200F3
:10018000D9CFE6FFE1CFD9FF9EA8FED7FE0EDB5008
:10019000AD6EE552E7CFD9FF1200AA0EE66EF0DF92
:1001A000E552550EE66EECDFE5521200D9CFE6FFC0
:1001B000E1CFD9FFFD0EDBCF14F0FE0EDBCF15F043
:1001C00015C014F0156A1450E66EDADFE552FF0E22
:1001D000E76EFD0EDBCF14F0FE0EDBCF15F0E7501F
:1001E0001416156A1450E66ECBDFE552E552E7CFE0
:1001F000D9FF1200D9CFE6FFE1CFD9FFFB0EDBCF4D
:1002000014F0FC0EDBCF15F0FD0EDBCF16F0FE0E6A
:10021000DBCF17F0180ED890173216321532143281
:10022000E806F9E11450E66EABDFE552FB0EDBCFDA
:1002300014F0FC0EDBCF15F0FD0EDBCF16F0FE0E3A
:10024000DBCF17F0100ED890173216321532143259
:10025000E806F9E11450E66E93DFE552FB0EDBCFC2
:1002600014F0FC0EDBCF15F0FD0EDBCF16F0FE0E0A
:10027000DBCF17F0080ED890173216321532143231
:10028000E806F9E11450E66E7BDFE552FB0EDBCFAA
:1002900014F0FC0EDBCF15F0FD0EDBCF16F0FE0EDA
:1002A000DBCF17F01450E66E6BDFE552E552E7CF77
:1002B000D9FF1200D9CFE6FFE1CFD9FF040EE12626
:1002C000FB0EDBCF1CF0FC0EDBCF1DF0FD0EDBCFF9
:1002D0001EF0FE0EDBCF1FF00A6A240E0B6E740EAA
:1002E0000C6E490E0D6E1CC005F01DC006F01EC040
:1002F00007F01FC008F092EC03F0F70EDBCF0AF016
:10030000F80EDBCF0BF0F90EDBCF0CF0FA0EDBCFE3
:100310000DF03FEC03F005C018F006C019F007C05F
:100320001AF008C01BF00A6A0B6A800E0C6E410EB0
:100330000D6E18C005F019C006F01AC007F01BC0FA
:1003400008F03FEC03F005C014F006C015F007C03C
:1003500016F008C017F00A6A0B6A800E0C6E3F0E8A
:100360000D6E14C005F015C006F016C007F017C0DA
:1003700008F0A8EC02F005C0DEFF06C0DEFF07C0F3
:10038000DEFF08C0DDFFDD52DD52D9CFE9FFDACF55
:10039000EAFFEECF14F0EECF15F0EECF16F0EFCF70
:1003A00017F00A6A0B6A7F0E0C6E430E0D6E14C0B6
:1003B00005F015C006F016C007F017C008F026ECCF
:1003C00004F0010A01E098D0D9CFE9FFDACFEAFFC3
:1003D000EECF1CF0EECF1DF0EECF1EF0EFCF1FF0F2
:1003E0000A6A0B6A800E0C6E3F0E0D6E1CC005F083
:1003F0001DC006F01EC007F01FC008F0A9EC02F0F7
:1004000005C018F006C019F007C01AF008C01BF0AC
:100410000A6A0B6A800E0C6E400E0D6E18C005F055
:1004200019C006F01AC007F01BC008F03FEC03F03B
:1004300005C014F006C015F007C016F008C017F08C
:100440000A6A0B6A800E0C6E3F0E0D6E14C005F02A
:1004500015C006F016C007F017C008F0A8EC02F0AF
:1004600005C0DEFF06C0DEFF07C0DEFF08C0DDFFFF
:10047000DD52DD52D9CFE9FFDACFEAFFEECF14F03B
:10048000EECF15F0EECF16F0EFCF17F00A6A0B6A39
:100490007F0E0C6E430E0D6E14C005F015C006F0F5
:1004A00016C007F017C008F026EC04F0010A03E1BB
:1004B000000E42D041D0F50EDBCFE9FFF60EDBCFC8
:1004C000EAFFEF0EEF6EDECF05F0DECF06F0DECFF7
:1004D00007F0DDCF08F0DD52DD52FFEC03F00750EE
:1004E000E66EF30EDBCFE9FFF40EDBCFEAFFE55259
:1004F000E750EF6E010E20D0F50EDBCFE9FFF60ED0
:10050000DBCFEAFFEF68DECF05F0DECF06F0DECF0F
:1005100007F0DDCF08F0DD52DD52FFEC03F00750AD
:10052000E66EF30EDBCFE9FFF40EDBCFEAFFE55218
:10053000E750EF6E010E00D0146E040EE15C02E293
:10054000E16AE552E16E1450E552E7CFD9FF12009F
:100550000D7E0F6ADCEC04F0F4EC04F00FB684EFCF
:1005600004F00FA20AD00FAA03D00FBE84EF04F04C
:100570000FA490EF04F08DEF04F00FAA05D00FAC9C
:1005800090EF04F08DEF04F00FA00AD00FA808D070
:100590000FBE04D00FA402D099EF04F09DEF04F039
:1005A000126A036A0D50085C116E10E305C013F067
:1005B00006C000F007C001F008C010F00AC005F046
:1005C0000BC006F00CC007F00F3A09D00AC013F0B8
:1005D0000BC000F00CC001F00DC010F0116C0F9EAC
:1005E0000FBC0F8E10C002F00FB0CCEF04F01A0E4B
:1005F0001160CCEF04F0026A086A0FA408D0056C01
:10060000061E071E081EE86A0622072208220FACF3
:1006100008D0136C001E011E021EE86A002201228F
:100620000222046A115207E008340732063205320A
:100630000432112EF9D70550132606500022075018
:1006400001220850022204C012F00F9E02AE0BD00D
:10065000126C131E001E011E021EE86A13220022E5
:10066000012202220F8E02A006D0D8800132003271
:1006700013321232102A10C002F0A0EF04F00F6AF9
:10068000DCEC04F0F4EC04F00FB684EF04F00FA2FD
:1006900005D00FBA84EF04F08BEF04F00FBA97EF98
:1006A00004F00FA005D00FB884EF04F097EF04F02A
:1006B0000FB88BEF04F0036A7F0E0824026EE86A1D
:1006C00003220D50025EE86A035A1A0E106E086A81
:1006D000126A136A006A016A0A50055E0B50065AD4
:1006E0000C50075A000E085A09E70A5005260B500D
:1006F00006220C500722000E082201D0128AD89040
:100700000536063607360836D890123613360036C8
:100710000136102EE1D7075006100510D8A4128A12
:10072000A0EF04F00F6ADCEC04F0F4EC04F00FB678
:1007300084EF04F00FA205D00FB884EF04F08BEF24
:1007400004F00FAA05D00FB084EF04F08BEF04F093
:100750000FB002D00FA802D097EF04F0036A0D503B
:100760000824026EE86A03227E0E025EE86A035ADB
:10077000126A136A006A016A0C500702F4CF01F092
:10078000F3CF00F00B500702F3501326F450002271
:10079000000E01220C500602F3501326F4500022E2
:1007A000000E01220A500702F3501226F4501322C1
:1007B000000E002201220B500602F3501226F450C4
:1007C0001322000E002201220C500502F3501226C3
:1007D000F4501322000E002201220A500602F450A7
:1007E0001226000E1322002201220B500502F450A3
:1007F0001226000E132200220122A0EF04F00F6A3D
:10080000DCEC04F00FB609EF04F00FA20AD00FB42D
:1008100003D07F0E076E19D0800E076E16D0076AC0
:1008200014D00FB0FCD7870E0860F1D77E0E086495
:10083000F6D7860E085C04E0D8900732082AF9D76C
:100840000FA403D0076C07AEEAD712002FEC04F018
:100850000FB6000C0FB0000C0FB4000C010C0F6AA7
:10086000DCEC04F0F4EC04F00FB612000FAE08D08C
:100870000FA004D00FA802D00F8012000F9012001A
:100880000D50085C0BE10C50075C08E10B50065C56
:1008900005E10A50055C02E10F801200D8A002D0E9
:1008A0000F8E10D008500DC008F00D6E07500CC010
:1008B00007F00C6E06500BC006F00B6E05500AC018
:1008C00005F00A6E0D50085C10E0FF0F09E00F9074
:1008D0000FB403D00FAE0F8412000FAE0F941200AE
:1008E0000D2AD8900C320B320A320A50055E0B509A
:1008F000065A0C50075A07BEEAD7D8900536063676
:100900000736082EF8D7C8D77F0E086EFF0E076E81
:10091000066E056E12007F0E0FBEFF0E086E02D02F
:100920007F0E086E800E076E066A056AF3D70FAE5B
:1009300004D0800E086E076AF7D7086A076AF4D7F2
:100940000150001013101210F8E003BEF0D701BEE2
:100950000CD002500310EBE0D8901236133600365C
:1009600001360206D8A00306F2D70350D4E10228CC
:10097000D2E012AE11D07F0E121402E113A00CD0FF
:10098000132AE86A0022012207E3D88001320032EC
:100990001332022A0228BFE00250C9E013C005F05A
:1009A00000C006F00134076E0230086E0732089E60
:1009B0000FBE088E8AEF04F00736083602E30F8474
:1009C0000F7E06E10F80086A076A066A056A120050
:1009D000082803E0D88007321200D890073202E1DD
:1009E0000F8212000F8612000C360D3602E30F8CB8
:1009F0000F7E06E10F880D6A0C6A0B6A0A6A120004
:100A00000D2803E0D8800C321200D8900C32EAE1B5
:040A10000F8A120037
:0C0A1400D9CFE6FFE1CFD9FF020EE126AA
:100A2000FE0EDBCF14F0100EE76E1418E8AE02D005
:100A3000143403D0E750D880145418E3FE0EDBCFF3
:100A400015F0153413E2FD0EDBCF16F0020EE76E43
:100A50001618E8AE02D0163403D0E750D8801654EA
:100A600005E3FD0EDBCF17F0173405E3020EF36E3E
:100A7000F46A76D075D0FE0EDBCF16F0176A16BE7C
:100A8000176816C0E6FF17C0E6FFFB0EDBCFE6FFD8
:100A9000FC0EDBCFE6FF8DEC08F0E552E552E552A7
:100AA000E7CF17F0E552E7CF16F0F3501624146E97
:100AB000F4501720156E110ED8801454000E1554E2
:100AC00011E2FE0EDBCFE6FF100EE552D880E754B0
:100AD000010F146E156A14BE156814C0DEFF15C030
:100AE000DDFF0ED0FB0EDBCFE6FFFC0EDBCFE6FF1B
:100AF0008DEC08F0E552E552F3CFDEFFF4CFDDFFD9
:100B0000FD0EDBCFE6FFFE0EDBCFE6FFE6D8E552BB
:100B1000E552FB0EDBCFE6FFFC0EDBCFE6FFDFCFBF
:100B2000E6FFB3D8E552E552E552FE0EDBCFE6FF15
:100B3000100EE552D880E754010F146E156A14BEEA
:100B400015681450DF1803E11550DE52DD1805E179
:100B5000010EF36EF46A04D003D0F36AF46A00D095
:100B6000020EE15C02E2E16AE552E16EE552E7CF96
:100B7000D9FF1200D9CFE6FFE1CFD9FFFE0EDBCFC0
:100B8000F3FFDB06F350000902E00000F7D7E5525F
:100B9000E7CFD9FF1200D9CFE6FFE1CFD9FFE65268
:100BA000FE0EDBCFF3FFDB06F35000090CE0040E72
:100BB000DF6EDF50DF06000905E0FA0EE66EDADFD1
:100BC000E552F7D7EDD7E552E552E7CFD9FF12004E
:100BD00089820000000089921200D9CFE6FFE1CFA0
:100BE000D9FF010EE66ED7DFE5528C6AFE0EDB38C8
:100BF0000F0B0F0B8C12ECDFF00E8C16FE0EDB5081
:100C00000F0B8C12E5DFE552E7CFD9FF1200D9CFE9
:100C1000E6FFE1CFD9FF010EE66EBDDFE5528C6A3B
:100C20008986010EE66EA6DFE552FE0EDB380F0B5D
:100C30000F0B8C12CDDFF00E8C16FE0EDB500F0B5F
:100C40008C12C6DF8996E552E7CFD9FF1200D9CFC3
:100C5000E6FFE1CFD9FFFD0EDBCFE9FFFE0EDBCFD4
:100C6000EAFFEF500EE0FD0EDBCFE9FFDB2AFE0EC0
:100C7000DBCFEAFF01E3DB2AEF50E66EC8DFE55287
:100C8000EAD7E552E7CFD9FF1200D9CFE6FFE1CF8F
:100C9000D9FFFC0EDBCFE9FFFD0EDBCFEAFFEF5003
:100CA00013E0FE0EDB5010E0FE0EDB06FC0EDBCF89
:100CB000E9FFDB2AFD0EDBCFEAFF01E3DB2AEF5081
:100CC000E66EA5DFE552E5D7E552E7CFD9FF120082
:100CD000010EE66E82DFE5521200D9CFE6FFE1CFCA
:100CE000D9FFFD0EDB50020808E1FE0EDB50400F7D
:100CF000800FE66E72DFE55209D0FD0EDB0406E1DF
:100D0000FE0EDB50800FE66E68DFE552E552E7CF5E
:100D1000D9FF1200929492969292956A89940F0E3E
:100D2000E66E39DFE552030E8C6E52DF050EE66E7D
:100D300032DFE552030E8C6E4BDFFA0EE66E1ADFE1
:100D4000E552030E8C6E44DFFA0EE66E13DFE552B9
:100D5000020E8C6E3DDFFA0EE66E0CDFE552280EB9
:100D6000E66E3BDFE5520F0EE66E37DFE552B0DF91
:100D7000060EE66E32DFE552010EE66EE66AADDF84
:060D8000E552E5521200ED
:0A0D8600D9CFE6FFE1CFD9FF290E17
:100D9000E126090EDE6EDD6A020E60C0DBFF030E87
:100DA00061C0DBFF040E62C0DBFF050E63C0DBFF2A
:100DB000060EDB68070EDB68080EDB68090EDB68D1
:100DC000010EF36E0A0EF3CFDBFFD9CFE6FFDACFC9
:100DD000E6FFE668E668E668E66860C0E6FF61C0D0
:100DE000E6FF62C0E6FF63C0E6FF0AEC00F0146EA7
:100DF0000A0EE15E1450290EE15C02E2E16AE5525E
:100E0000E16EE552E7CFD9FF1200D9CFE6FFE1CF7F
:100E1000D9FF290EE126020E60C0DBFF030E61C080
:100E2000DBFF040E62C0DBFF050E63C0DBFF060EB6
:100E3000DB68070EDB68080EDB68090EDB68040E52
:100E4000F36E0A0EF3CFDBFF0B0E64C0DBFF000175
:100E50006451010A07E0010A01E03BD00A0EDE6E90
:100E6000DD6A37D00E0EDE6EDD6A65C014F066C036
:100E700015F067C016F068C017F0180ED89017323A
:100E8000163215321432E806F9E11450E76E0C0EF2
:100E9000E7CFDBFF67C014F068C015F00001166AE9
:100EA000176A1450E76E0D0EE7CFDBFF66C014F033
:100EB00067C015F068C016F0176A1450E76E0E0E82
:100EC000E7CFDBFF00016551E76E0F0EE7CFDBFFD9
:100ED00000D0D9CFE6FFDACFE6FFE668E668E6683D
:100EE000E66860C0E6FF61C0E6FF62C0E6FF63C07F
:100EF000E6FF0AEC00F0146E0A0EE15E1450290EB3
:100F0000E15C02E2E16AE552E16EE552E7CFD9FF2A
:020F10001200CD
:0E0F1200D9CFE6FFE1CFD9FF020EE1260001A4
:100F2000010E606F616B626B636B646B6569666910
:100F300067696869696B6A6B6B6B6C6BD950010F81
:100F4000E66E000EDA20E66ED9CFE6FFDACFE6FFD6
:100F5000E66AE66A160EE66E460EE66EE66AE66A31
:100F6000800EE66E400EE66E5AEC01F0146E0C0E2A
:100F7000E15E145001080FE0C70EE66E000EE66E4B
:100F8000020EE66E010EE66E0AEC05F0E552E55241
:100F9000E552E552FFD7F26A010EDBCFE6FFE66AC3
:100FA0003C0EDF14E66E31EC08F0E552E552E552F6
:100FB000020EE15C02E2E16AE552E16EE552E7CF42
:040FC000D9FF120043
:0C0FC400060EF66E000EF76E000EF86EC2
:100FD00000010900F550DC6F0900F550DD6F03E1F9
:100FE000DC6701D03DD00900F550D76F0900F550FE
:100FF000D86F0900F550D96F09000900F550E96E66
:101000000900F550EA6E090009000900F550DA6F91
:101010000900F550DB6F09000900F6CFDEF0F7CFCD
:10102000DFF0F8CFE0F0D7C0F6FFD8C0F7FFD9C0A7
:10103000F8FF0001DA5302E1DB5307E00900F55045
:10104000EE6EDA07F8E2DB07F9D7DEC0F6FFDFC0A5
:10105000F7FFE0C0F8FF0001DC07000EDD5BBFD743
:0210600012007C
:0E106200D9CFE6FFDACFE6FFE1CFD9FFE2CF2C
:10107000DAFFAC6AAB6AFD0EDBB0AC88DBA202D053
:10108000AC8CAB8CDBB4AC8EDBA602D0AB8801D0D1
:10109000AB8ADBA802D0AC8401D0AC949E98DBACC8
:1010A00002D09D8A01D09D9A9E9ADBAE02D09D8887
:1010B00001D09D98FB0EDB50AF6EAC8AAB8E949C3A
:1010C000948EAC50100B04E0AC50800B01E1948C7A
:0C10D000E552E5CFDAFFE7CFD9FF1200B0
:0410DC0089EC07F0A4
:1010E0000001010E646F440E656F330E666F220EB1
:0E10F000676F110E686F05EC07F0FFD7120056
:0210FE0014EEEE
:1011000000F024EE00F0F86A0F9CE2EC07F0A2EC8D
:0A11100008F06EEC08F0FBD71200A7
:06111A00FE0EE3CFE9FF29
:10112000FF0EE3CFEAFFF36AF46AEE5203E0F34AFC
:06113000F42AFBD71200B7
:0A11360000EE00F00F0EEE6AEA6210
:04114000FDD71200C5
:02114400120097
:0A11460065727265757220626175B2
:0611500064726174650089
:00000001FF
