:020000040000FA
:0600000069EF0EF0120092
:020006001200E6
:06000800C1EF09F0120037
:02000E000200EE
:100010001F1D000075010000100000001E1D0000E3
:080020008F0100000100000047
:08002800D9CFE6FFE1CFD9FFBB
:10003000020EE126BCD8D950FB0FE96EFF0EDA2084
:10004000EA6EEECFE6FFEECFE6FFEECFE6FFEFCFB4
:10005000E6FFDAD8E552E552E552E552D950F70FFE
:10006000E96EFF0EDA20EA6EEECFE6FFEECFE6FF96
:10007000EECFE6FFEFCFE6FFC7D8E552E552E552F7
:10008000E552F50EDBCFE9FFF60EDBCFEAFFEECF50
:10009000E6FFEFCFE6FF94D8E552E552F50EDBCF51
:1000A000E9FFF60EDBCFEAFF020EE926000EEA2298
:1000B000EECFE6FFEECFE6FFEECFE6FFEFCFE6FFB7
:1000C000A3D8E552E552E552E552F50EDBCFE9FF44
:1000D000F60EDBCFEAFF060EE926000EEA22EECF8F
:1000E000E6FFEECFE6FFEECFE6FFEFCFE6FF8CD8E0
:1000F000E552E552E552E552F50EDBCFE9FFF60E8B
:10010000DBCFEAFF0A0EE926000EEA22EF50E66E88
:1001100041D8E552DE6ADD6ADECF14F0DDCF15F09E
:10012000F50EDBCFE9FFF60EDBCFEAFFEECF16F0E0
:10013000EFCF17F0090E165E000E175A1650145C1A
:10014000175015581DE2F50EDBCFE9FFF60EDBCF99
:10015000EAFF0B0EE926000EEA22E9CF14F0EACFFF
:1001600015F0DE501424E96EDD501520EA6EEF50D4
:10017000E66E10D8E552DF2A010E01E3DB2ACCD768
:10018000020EE15C02E2E16AE552E16EE552E7CF80
:10019000D9FF1200D9CFE6FFE1CFD9FF9EA8FED745
:1001A000FE0EDB50AD6EE552E7CFD9FF1200AA0E6E
:1001B000E66EF0DFE552550EE66EECDFE55212001A
:1001C000D9CFE6FFE1CFD9FFFD0EDBCF14F0FE0E55
:1001D000DBCF15F015C014F0156A1450E66EDADFA7
:1001E000E552FF0EE76EFD0EDBCF14F0FE0EDBCF07
:1001F00015F0E7501416156A1450E66ECBDFE55281
:10020000E552E7CFD9FF1200D9CFE6FFE1CFD9FF02
:10021000FB0EDBCF14F0FC0EDBCF15F0FD0EDBCFB9
:1002200016F0FE0EDBCF17F0180ED89017321632EC
:1002300015321432E806F9E11450E66EABDFE552F0
:10024000FB0EDBCF14F0FC0EDBCF15F0FD0EDBCF89
:1002500016F0FE0EDBCF17F0100ED89017321632C4
:1002600015321432E806F9E11450E66E93DFE552D8
:10027000FB0EDBCF14F0FC0EDBCF15F0FD0EDBCF59
:1002800016F0FE0EDBCF17F0080ED890173216329C
:1002900015321432E806F9E11450E66E7BDFE552C0
:1002A000FB0EDBCF14F0FC0EDBCF15F0FD0EDBCF29
:1002B00016F0FE0EDBCF17F01450E66E6BDFE55242
:1002C000E552E7CFD9FF1200D9CFE6FFE1CFD9FF42
:1002D000040EE126FB0EDBCF1CF0FC0EDBCF1DF085
:1002E000FD0EDBCF1EF0FE0EDBCF1FF00C6A240EDE
:1002F0000D6E740E0E6E490E0F6E1CC007F01DC001
:1003000008F01EC009F01FC00AF01CEC08F0F70E40
:10031000DBCF0CF0F80EDBCF0DF0F90EDBCF0EF0DB
:10032000FA0EDBCF0FF0C9EC07F007C018F008C0D9
:1003300019F009C01AF00AC01BF00C6A0D6A800E91
:100340000E6E410E0F6E18C007F019C008F01AC0EB
:1003500009F01BC00AF0C9EC07F007C014F008C090
:1003600015F009C016F00AC017F00C6A0D6A800E6D
:100370000E6E3F0E0F6E14C007F015C008F016C0C9
:1003800009F017C00AF032EC07F007C0DEFF08C022
:10039000DEFF09C0DEFF0AC0DDFFDD52DD52D9CF2E
:1003A000E9FFDACFEAFFEECF14F0EECF15F0EECF93
:1003B00016F0EFCF17F00C6A0D6A7F0E0E6E430E2B
:1003C0000F6E14C007F015C008F016C009F017C072
:1003D0000AF0DDEC08F0010A01E098D0D9CFE9FF7E
:1003E000DACFEAFFEECF1CF0EECF1DF0EECF1EF01D
:1003F000EFCF1FF00C6A0D6A800E0E6E3F0E0F6E6F
:100400001CC007F01DC008F01EC009F01FC00AF094
:1004100033EC07F007C018F008C019F009C01AF053
:100420000AC01BF00C6A0D6A800E0E6E400E0F6E35
:1004300018C007F019C008F01AC009F01BC00AF074
:10044000C9EC07F007C014F008C015F009C016F099
:100450000AC017F00C6A0D6A800E0E6E3F0E0F6E0A
:1004600014C007F015C008F016C009F017C00AF054
:1004700032EC07F007C0DEFF08C0DEFF09C0DEFF78
:100480000AC0DDFFDD52DD52D9CFE9FFDACFEAFF46
:10049000EECF14F0EECF15F0EECF16F0EFCF17F051
:1004A0000C6A0D6A7F0E0E6E430E0F6E14C007F0BD
:1004B00015C008F016C009F017C00AF0DDEC08F00E
:1004C000010A03E1000E42D041D0F50EDBCFE9FF77
:1004D000F60EDBCFEAFFEF0EEF6EDECF07F0DECFDA
:1004E00008F0DECF09F0DDCF0AF0DD52DD52B6ECC8
:1004F00008F00950E66EF30EDBCFE9FFF40EDBCF18
:10050000EAFFE552E750EF6E010E20D0F50EDBCF8B
:10051000E9FFF60EDBCFEAFFEF68DECF07F0DECFB4
:1005200008F0DECF09F0DDCF0AF0DD52DD52B6EC87
:1005300008F00950E66EF30EDBCFE9FFF40EDBCFD7
:10054000EAFFE552E750EF6E010E00D0146E040E84
:10055000E15C02E2E16AE552E16E1450E552E7CF58
:10056000D9FF1200D9CFE6FFE1CFD9FFFC0EDBCFD8
:10057000E9FFFD0EDBCFEAFF040EE926000EEA22BA
:10058000EECF14F0EFCF15F0FC0EDBCFE9FFFD0E40
:10059000DBCFEAFF060EE926000EEA22EECF16F0C8
:1005A000EFCF17F01650141802E1175015180DE18F
:1005B000FC0EDBCFE9FFFD0EDBCFEAFF080EE926DC
:1005C000000EEA22EE2AEF2277D0FC0EDBCFE9FF05
:1005D000FD0EDBCFEAFF020EE926000EEA22EE5006
:1005E000EFCFEAFFE96EFE0EDBCFEFFFFC0EDBCFB5
:1005F000E9FFFD0EDBCFEAFF040EE926000EEA223A
:10060000EE2AEF22FC0EDBCFE9FFFD0EDBCFEAFF87
:10061000020EE926000EEA22EE2AEF22FC0EDBCFC4
:10062000E9FFFD0EDBCFEAFF020EE926000EEA220B
:10063000EECF14F0EFCF15F0FC0EDBCFE9FFFD0E8F
:10064000DBCFEAFF0A0EE926000EEA22E9CF18F016
:10065000EACF19F0FC0EDBCFE9FFFD0EDBCFEAFF9E
:10066000060EE926000EEA221850EE24166E1950E6
:10067000EE20176E1650141802E1175015181CE1E1
:10068000FC0EDBCFE9FFFD0EDBCFEAFF0A0EE92609
:10069000000EEA22E9CF14F0EACF15F0FC0EDBCF12
:1006A000E9FFFD0EDBCFEAFF020EE926000EEA228B
:1006B00014C0EEFF15C0EDFFE552E7CFD9FF1200E1
:1006C000D9CFE6FFE1CFD9FFE652FD0EDBCFE9FF40
:1006D000FE0EDBCFEAFF040EE926000EEA22EE5002
:1006E000ED1003E1000E6CD06BD0FD0EDBCFE9FF07
:1006F000FE0EDBCFEAFFEE50EFCFEAFFE96EEFCF61
:10070000DFFFF29EFD0EDBCFE9FFFE0EDBCFEAFF3F
:10071000040EE926000EEA22EE06EF5AF28EFD0ED6
:10072000DBCFE9FFFE0EDBCFEAFFEE2A000EEF2261
:10073000FD0EDBCFE9FFFE0EDBCFEAFFEECF14F0BC
:10074000EFCF15F0FD0EDBCFE9FFFE0EDBCFEAFFAA
:100750000A0EE926000EEA22E9CF18F0EACF19F0D6
:10076000FD0EDBCFE9FFFE0EDBCFEAFF060EE9262A
:10077000000EEA221850EE24166E1950EE20176E65
:100780001650141802E11750151818E1FD0EDBCFB2
:10079000E9FFFE0EDBCFEAFF0A0EE926000EEA2291
:1007A000E9CF14F0EACF15F0FD0EDBCFE9FFFE0E26
:1007B000DBCFEAFF14C0EEFF15C0EDFFDF5000D025
:1007C000E552E552E7CFD9FF1200D9CFE6FFE1CFDE
:1007D000D9FFFD0EDBCFE9FFFE0EDBCFEAFF040EF3
:1007E000EB6A050EEB6AFD0EDBCFE9FFFE0EDBCFF9
:1007F000EAFF080EEB6A090EEB6AFD0EDBCFE9FF9C
:10080000FE0EDBCFEAFF060EE926000EEA22FB0E03
:10081000DBCFEEFFFC0EDBCFEDFFFD0EDBCFE9FF04
:10082000FE0EDBCFEAFF0A0EE926000EEA22E9CF30
:1008300014F0EACF15F0FD0EDBCFE9FFFE0EDBCFA3
:10084000EAFF020EE926000EEA2214C0EEFF15C0F0
:10085000EDFFFD0EDBCFE9FFFE0EDBCFEAFF0A0E58
:10086000E926000EEA22E9CF14F0EACF15F0FD0EDA
:10087000DBCFE9FFFE0EDBCFEAFF14C0EEFF15C0B1
:0A088000EDFFE552E7CFD9FF1200AB
:06088A00D9CFE6FFE1CF2B
:10089000D9FF290EE126090EDE6EDD6A020E00C1C7
:1008A000DBFF030E01C1DBFF040E02C1DBFF050EFF
:1008B00003C1DBFF060EDB68070EDB68080EDB6892
:1008C000090EDB68010EF36E0A0EF3CFDBFFD9CF02
:1008D000E6FFDACFE6FFE668E668E668E66800C1AC
:1008E000E6FF01C1E6FF02C1E6FF03C1E6FF14EC2B
:1008F00000F0146E0A0EE15E1450290EE15C02E273
:10090000E16AE552E16EE552E7CFD9FF1200D9CF97
:10091000E6FFE1CFD9FF290EE126020E00C1DBFF81
:10092000030E01C1DBFF040E02C1DBFF050E03C194
:10093000DBFF060EDB68070EDB68080EDB68090EBE
:10094000DB68040EF36E0A0EF3CFDBFF0B0E04C15F
:10095000DBFF01010451010A07E0010A01E03BD07D
:100960000A0EDE6EDD6A37D00E0EDE6EDD6A05C160
:1009700014F006C115F007C116F008C117F0180EE3
:10098000D8901732163215321432E806F9E11450B5
:10099000E76E0C0EE7CFDBFF07C114F008C115F0BE
:1009A0000001166A176A1450E76E0D0EE7CFDBFFE1
:1009B00006C114F007C115F008C116F0176A1450EB
:1009C000E76E0E0EE7CFDBFF01010551E76E0F0E5C
:1009D000E7CFDBFF00D0D9CFE6FFDACFE6FFE6684E
:1009E000E668E668E66800C1E6FF01C1E6FF02C10D
:1009F000E6FF03C1E6FF14EC00F0146E0A0EE15EA0
:100A00001450290EE15C02E2E16AE552E16EE55222
:100A1000E7CFD9FF1200D9CFE6FFE1CFD9FF110E02
:100A2000E126040EDB6A050EDB6A060EDB6A070EA2
:100A3000DB6A0D0EDB6A0E0EDB6A0F0EDB6A00014D
:100A40006451651101E104D2DE6ADD6ADECF14F083
:100A5000DDCF15F0D890155004E6040E145C000E9E
:100A600015583DE2600EE66E000EE66E60EC03F097
:100A7000E552E552146E156A166A176A080E086E7A
:100A8000096ADECF0DF0DDCF0EF089EC08F00650DC
:100A90001F0B07E0D8901436153616361736E806C1
:100AA000F9E1D950040FE96EDACFEAFFEE501426CF
:100AB000EE501522EE501622EE501722040E14C0EE
:100AC000DBFF050E15C0DBFF060E16C0DBFF070EB1
:100AD00017C0DBFFDF2A010E01E3DB2AB7D7600E68
:100AE000E66E000EE66E60EC03F0E552E552E76E4E
:100AF0000C0EE7CFDBFF600EE66E000EE66E60ECDC
:100B000003F0E552E552E76E0D0EE7CFDBFF0C0E6A
:100B1000DB50020A01E09CD1DE6ADD6ADECF14F010
:100B2000DDCF15F001010951145C0A51155837E267
:100B3000040EDBCF14F0050EDBCF15F0060EDBCF75
:100B400016F0070EDBCF17F0DECFE9FFDDCFEAFFAF
:100B5000120EEA02F3CFEAFFE902F3CFE9FFF45005
:100B6000EA260B0EE926010EEA22EE50141809E1DE
:100B7000EE50151806E1EE50161803E1EE50171866
:100B800000E108E1010EF36E0E0EF3CFDBFF0F0E56
:100B9000DFCFDBFFDF2A010E01E3DB2ABFD70E0E1A
:100BA000DB500BE10F0E09C1DBFF050E095D000EE6
:100BB0000A5903E2092B000E0A230F0EDBCF14F0B3
:100BC000050EE76E1418E8AE02D0E73402D0E75005
:100BD000145C01E31FD10F0EDBCFE9FFEA6AE9BE27
:100BE000EA68120EEA02F3CFEAFFE902F3CFE9FF67
:100BF000F450EA260B0EE926010EEA22040EDBCFA2
:100C0000EEFF050EDBCFEEFF060EDBCFEEFF070E8D
:100C1000DBCFEEFF600EE66E000EE66E60EC03F0DA
:100C2000E552E552E66E0F0EDBCFE9FFEA6AE9BE58
:100C3000EA68120EEA02F3CFEAFFE902F3CFE9FF16
:100C4000F450EA260B0EE926010EEA22040EE926EC
:100C5000000EEA22E552E750EF6E0D0EDB04FC0BAE
:100C6000E842E842E76E100EE7CFDBFF0F0EDBCF66
:100C7000E9FFEA6AE9BEEA68120EEA02F3CFEAFF88
:100C8000E902F3CFE9FFF450EA260B0EE926010E44
:100C9000EA22050EE926000EEA22100EDBCFEFFF56
:100CA000DE6ADD6ADECF14F0DDCF15F0100EDBCF8B
:100CB00016F0176A16BE176815501718E8AE02D05E
:100CC000173404D01650145C1750155801E3A1D006
:100CD000080EDB6A090EDB6A0A0EDB6A0B0EDB6AA2
:100CE000020EDB6A030EDB6A020EDBCF14F0030E8A
:100CF000DBCF15F0D890155004E6040E145C000EFE
:100D0000155840E2600EE66E000EE66E60EC03F0F1
:100D1000E552E552146E156A166A176A080E086ED7
:100D2000096A020EDBCF0DF0030EDBCF0EF089EC6B
:100D300008F006501F0B07E0D8901436153616360B
:100D40001736E806F9E1D950080FE96EDACFEAFF65
:100D5000EE501426EE501522EE501622EE501722B9
:100D6000080E14C0DBFF090E15C0DBFF0A0E16C00B
:100D7000DBFF0B0E17C0DBFF020EDB2A030E01E3C5
:100D8000DB2AB2D7DECF14F0DDCF15F0D8901550A6
:100D900004E6030E145C000E155836E20F0EDBCF8E
:100DA000E9FFEA6AE9BEEA68120EEA02F3CFEAFF57
:100DB000E902F3CFE9FFF450EA260B0EE926010E13
:100DC000EA22060EE926000EEA22E9CF14F0EACF65
:100DD00015F0040E086E096ADECF0DF0DDCF0EF0BF
:100DE00089EC08F014500624E96E15500720EA6ECD
:100DF000080EDBCFEEFF090EDBCFEEFF0A0EDBCFD6
:100E0000EEFF0B0EDBCFEEFFDF2A010E01E3DB2A44
:100E100049D71ED0DE6ADD6ADECF14F0DDCF15F0D3
:100E20000D0EDB50000115AE02D0D89003D0145C3B
:100E3000000E15580DE2600EE66E000EE66E60ECD8
:100E400003F0E552E552DF2A010E01E3DB2AE4D785
:100E5000110EE15C02E2E16AE552E16EE552E7CF94
:040E6000D9FF1200A4
:0C0E64000F7E016A93EC09F0ABEC09F082
:100E700001B63BEF09F001A20AD001AA03D001BEDE
:100E80003BEF09F001A447EF09F044EF09F001AA94
:100E900005D001AC47EF09F044EF09F001A00AD0FA
:100EA00001A808D001BE04D001A402D050EF09F07F
:100EB00054EF09F0126A056A0F500A5C116E10E3D4
:100EC00007C013F008C002F009C003F00AC010F018
:100ED0000CC007F00DC008F00EC009F0013A09D0AF
:100EE0000CC013F00DC002F00EC003F00FC010F0E4
:100EF000116C019E01BC018E10C004F001B083EFA3
:100F000009F01A0E116083EF09F0046A0A6A01A45D
:100F100008D0076C081E091E0A1EE86A082209226A
:100F20000A2201AC08D0136C021E031E041EE86ADC
:100F3000022203220422066A115207E00A3409320F
:100F4000083207320632112EF9D7075013260850FF
:100F50000222095003220A50042206C012F0019E08
:100F600004AE0BD0126C131E021E031E041EE86A90
:100F70001322022203220422018E04A006D0D8806C
:100F80000332023213321232102A10C004F057EF2B
:100F900009F0016A93EC09F0ABEC09F001B63BEF04
:100FA00009F001A205D001BA3BEF09F042EF09F0C8
:100FB00001BA4EEF09F001A005D001B83BEF09F0EE
:100FC0004EEF09F001B842EF09F0056A7F0E0A24DE
:100FD000046EE86A05220F50045EE86A055A1A0E8C
:100FE000106E0A6A126A136A026A036A0C50075E7C
:100FF0000D50085A0E50095A000E0A5A09E70C50B3
:1010000007260D5008220E500922000E0A2201D098
:10101000128AD8900736083609360A36D890123622
:10102000133602360336102EE1D709500810071088
:10103000D8A4128A57EF09F0016A93EC09F0ABECDF
:1010400009F001B63BEF09F001A205D001B83BEF72
:1010500009F042EF09F001AA05D001B03BEF09F019
:1010600042EF09F001B002D001A802D04EEF09F022
:10107000056A0F500A24046EE86A05227E0E045E9B
:10108000E86A055A126A136A026A036A0E50090274
:10109000F4CF03F0F3CF02F00D500902F350132602
:1010A000F4500222000E03220E500802F3501326C1
:1010B000F4500222000E03220C500902F3501226B3
:1010C000F4501322000E022203220D500802F350A6
:1010D0001226F4501322000E022203220E500702A1
:1010E000F3501226F4501322000E022203220C5059
:1010F0000802F4501226000E1322022203220D5081
:101100000702F4501226000E13220222032257EF88
:1011100009F009C013F008C012F008500D02F4CF16
:1011200007F0F3CF06F009500E02F4CF09F0F3CF29
:1011300008F00D02F3500726F4500822E86A09224D
:1011400012500E02F3500726F4500822E86A0922D2
:101150000EAEAFEF08F01250085E1350095A13AEEE
:10116000000C0D50085E0E50095A000C016A93ECF9
:1011700009F001B6C0EF08F001A20AD001B403D013
:101180007F0E096E19D0800E096E16D0096A14D030
:1011900001B0FCD7870E0A60F1D77E0E0A64F6D73D
:1011A000860E0A5C04E0D89009320A2AF9D701A415
:1011B00003D0096C09AEEAD71200E6EC08F001B6DC
:1011C000000C01B0000C01B4000C010C016A93EC9E
:1011D00009F0ABEC09F001B6120001AE08D001A095
:1011E00004D001A802D001801200019012000F501B
:1011F0000A5C0BE10E50095C08E10D50085C05E14A
:101200000C50075C02E101801200D8A002D0018ED0
:1012100010D00A500FC00AF00F6E09500EC009F02E
:101220000E6E08500DC008F00D6E07500CC007F090
:101230000C6E0F500A5C10E0FF0F09E0019001B442
:1012400003D001AE0184120001AE019412000F2AF6
:10125000D8900E320D320C320C50075E0D50085AE9
:101260000E50095A09BEEAD7D89007360836093613
:101270000A2EF8D7C8D77F0E0A6EFF0E096E086EC9
:10128000076E12007F0E01BEFF0E0A6E02D07F0EA7
:101290000A6E800E096E086A076AF3D701AE04D0A1
:1012A000800E0A6E096AF7D70A6A096AF4D70350F2
:1012B000021013101210F8E005BEF0D703BE0CD0D8
:1012C00004500510EBE0D890123613360236033680
:1012D0000406D8A00506F2D70550D4E10428D2E0D0
:1012E00012AE11D07F0E121402E113A00CD0132AFB
:1012F000E86A0222032207E3D88003320232133263
:10130000042A0428BFE00450C9E013C007F002C05B
:1013100008F00334096E04300A6E09320A9E01BED9
:101320000A8E41EF09F009360A3602E30184017E94
:1013300006E101800A6A096A086A076A12000A2837
:1013400003E0D88009321200D890093202E101820C
:101350001200018612000E360F3602E3018C017E68
:1013600006E101880F6A0E6A0D6A0C6A12000F28E6
:1013700003E0D8800E321200D8900E32EAE1018AE2
:02138000120059
:0E138200DACFE4FFE2CFDAFFE9CFE4FFEACFF3
:10139000E4FFF6CFE4FFF7CFE4FFF5CFE4FFF3CFB0
:1013A000E4FFF4CFE4FFFACFE4FF00EE00F0140E08
:1013B000E80403E3EECFE4FFFBD700EE14F00C0EDD
:1013C000E80403E3EECFE4FFFBD7E652D9CFE6FF14
:1013D000E1CFD9FF030EE1269EAA92D1AE50DF6E77
:1013E00001018F51070A01E176D1010A01E1F8D02C
:1013F000030A01E1A0D0010A6AE0070A34E0010A09
:1014000022E0030A1AE0010A01E07AD1AA0EDF5CA9
:1014100002E1010E8F6F0101656B666B676B686B94
:10142000696B6A6B6B6B6C6B6D6B6E6B6F6B706B00
:10143000716B726B736B746B63D1550EDF5C02E181
:10144000020E8F6F5DD10101732B000E7423080E05
:10145000731901E1745106E10101030E8F6F01015F
:10146000736B746B4DD10101732B000E7423080E46
:101470001F0B6DC120F06EC121F06FC122F070C151
:1014800023F007E0D8902036213622362336E806AE
:10149000F9E1DFCF24F0256A266A276A2050242448
:1014A00001016D6F215025206E6F225026206F6F35
:1014B00023502720706F020E731901E1745106E169
:1014C0000101040E8F6F0101736B746B19D101015F
:1014D000732B000E7423080E1F0B65C120F066C12C
:1014E00021F067C122F068C123F007E0D8902036D0
:1014F000213622362336E806F9E1DFCF24F0256ACB
:10150000266A276A205024240101656F2150252076
:10151000666F22502620676F23502720686F040EC5
:10152000731901E1745106E10101050E8F6F01018C
:10153000736B746BE5D00101732B000E7423080EDE
:101540001F0B69C120F06AC121F06BC122F06CC190
:1015500023F007E0D8902036213622362336E806DD
:10156000F9E1DFCF24F0256A266A276A2050242477
:101570000101696F215025206A6F225026206B6F70
:10158000235027206C6F040E731901E1745127E179
:10159000E868691908E1E8686A1905E1E8686B1903
:1015A00002E1E8686C1912E0690EE96E010EEA6E5C
:1015B000EE500101001909E1EE50011906E1EE506B
:1015C000021903E1EE50031900E107E10101060EE3
:1015D0008F6F0101736B746B02D001018F6B90D020
:1015E000DF500101716F726B020E711901E17251CE
:1015F0000AE0050E711901E1725105E0040E71193E
:1016000001E1725165E1010EDB6A020EDB6A010E37
:10161000DBCF20F0020EDBCF21F0D890215004E682
:10162000040E205C000E21581DE2600EE66E000ED6
:10163000E66E01016551E66EB2EC02F0E552E5524C
:10164000E552080E1F0B08E00101D890683367339C
:1016500066336533E806F9E1010EDB2A020E01E389
:10166000DB2AD5D7600EE66E000EE66E71C1E6FF8E
:10167000B2EC02F0E552E552E5526DC120F06EC1C8
:1016800021F06FC122F070C123F0090E205E000E20
:10169000215A225A235A20C073F121C074F1600EDE
:1016A000E66E000EE66E73C1E6FFB2EC02F0E552A4
:1016B000E552E5520101000ED8807355000E7455B5
:1016C00004E20101070E8F6F02D001018F6B02D07F
:1016D00001018F6B15D0600EE66E000EE66EDFCF57
:1016E000E6FFB2EC02F0E552E552E5520101730764
:1016F000000E745B7351741102E101018F6B00D015
:10170000030EE15C02E2E16AE552E16EE552E7CFE9
:10171000D9FFE55200EE1FF00C0EE80403E3E5CF1D
:10172000EDFFFBD700EE13F0140EE80403E3E5CF62
:10173000EDFFFBD7E5CFFAFFE5CFF4FFE5CFF3FFF1
:10174000E5CFF5FFE5CFF7FFE5CFF6FFE5CFEAFF01
:0A175000E5CFE9FFE5CFDAFF110055
:06175A00D9CFE6FFE1CF4C
:10176000D9FF020EE126FE0EDBCF14F0100EE76E5D
:101770001418E8AE02D0143403D0E750D8801454C3
:1017800018E3FE0EDBCF15F0153413E2FD0EDBCFB0
:1017900016F0020EE76E1618E8AE02D0163403D02B
:1017A000E750D880165405E3FD0EDBCF17F0173451
:1017B00005E3020EF36EF46A76D075D0FE0EDBCF31
:1017C00016F0176A16BE176816C0E6FF17C0E6FFC8
:1017D000FB0EDBCFE6FFFC0EDBCFE6FF77EC0EF077
:1017E000E552E552E552E7CF17F0E552E7CF16F0A4
:1017F000F3501624146EF4501720156E110ED88075
:101800001454000E155411E2FE0EDBCFE6FF100E4D
:10181000E552D880E754010F146E156A14BE15689E
:1018200014C0DEFF15C0DDFF0ED0FB0EDBCFE6FFE0
:10183000FC0EDBCFE6FF77EC0EF0E552E552F3CF7E
:10184000DEFFF4CFDDFFFD0EDBCFE6FFFE0EDBCFCC
:10185000E6FFE6D8E552E552FB0EDBCFE6FFFC0ED5
:10186000DBCFE6FFDFCFE6FFB3D8E552E552E55226
:10187000FE0EDBCFE6FF100EE552D880E754010FD5
:10188000146E156A14BE15681450DF1803E1155064
:10189000DE52DD1805E1010EF36EF46A04D003D0C8
:1018A000F36AF46A00D0020EE15C02E2E16AE552FA
:1018B000E16EE552E7CFD9FF1200D9CFE6FFE1CFC5
:1018C000D9FFFE0EDBCFF3FFDB06F350000902E089
:1018D0000000F7D7E552E7CFD9FF1200D9CFE6FFD6
:1018E000E1CFD9FFE652FE0EDBCFF3FFDB06F3506C
:1018F00000090CE0040EDF6EDF50DF06000905E092
:10190000FA0EE66EDADFE552F7D7EDD7E552E5528B
:10191000E7CFD9FF120089820000000089921200EF
:10192000D9CFE6FFE1CFD9FF010EE66ED7DFE55252
:101930008C6AFE0EDB380F0B0F0B8C12ECDFF00EF7
:101940008C16FE0EDB500F0B8C12E5DFE552E7CF55
:10195000D9FF1200D9CFE6FFE1CFD9FF010EE66E25
:10196000BDDFE5528C6A8986010EE66EA6DFE55280
:10197000FE0EDB380F0B0F0B8C12CDDFF00E8C162A
:10198000FE0EDB500F0B8C12C6DF8996E552E7CFB7
:10199000D9FF1200D9CFE6FFE1CFD9FFFD0EDBCF93
:1019A000E9FFFE0EDBCFEAFFEF500EE0FD0EDBCFCE
:1019B000E9FFDB2AFE0EDBCFEAFF01E3DB2AEF5073
:1019C000E66EC8DFE552EAD7E552E7CFD9FF12004D
:1019D000D9CFE6FFE1CFD9FFFC0EDBCFE9FFFD0E4B
:1019E000DBCFEAFFEF5013E0FE0EDB5010E0FE0EFF
:1019F000DB06FC0EDBCFE9FFDB2AFD0EDBCFEAFFC7
:101A000001E3DB2AEF50E66EA5DFE552E5D7E552AC
:101A1000E7CFD9FF1200010EE66E82DFE552120019
:101A2000D9CFE6FFE1CFD9FFFD0EDB50020808E178
:101A3000FE0EDB50400F800FE66E72DFE55209D0DC
:101A4000FD0EDB0406E1FE0EDB50800FE66E68DF64
:101A5000E552E552E7CFD9FF120092949296929206
:101A6000956A89940F0EE66E39DFE552030E8C6E8F
:101A700052DF050EE66E32DFE552030E8C6E4BDF51
:101A8000FA0EE66E1ADFE552030E8C6E44DFFA0E94
:101A9000E66E13DFE552020E8C6E3DDFFA0EE66E47
:101AA0000CDFE552280EE66E3BDFE5520F0EE66EC8
:101AB00037DFE552B0DF060EE66E32DFE552010E8B
:0C1AC000E66EE66AADDFE552E55212006A
:041ACC00D9CFE6FF89
:101AD000E1CFD9FF020EE1260101010E006F016B7B
:101AE000026B036B046B0569066907690869096B7A
:101AF0000A6BD950010FE66E000EDA20E66ED9CFE0
:101B0000E6FFDACFE6FFE66AE66A160EE66E460EF6
:101B1000E66EE66AE66A800EE66E400EE66E64ECFD
:101B200001F0146E0C0EE15E145001080FE0750E0A
:101B3000E66E010EE66E020EE66E010EE66EADEC8E
:101B40000BF0E552E552E552E552FFD7320EE66E54
:101B5000E66A600EE66E000EE66EE5EC03F0E55216
:101B6000E552E552E552F26A010EDBCFE6FFE66A86
:101B70007C0EDF14E66E1CEC0EF0E552E552E552E9
:101B80009F8AD08EF28E020EE15C02E2E16AE5529B
:0A1B9000E16EE552E7CFD9FF120025
:061B9A000E0EF66E000EB7
:101BA000F76E000EF86E01010900F5508A6F09000A
:101BB000F5508B6F03E18A6701D03DD00900F550E5
:101BC000856F0900F550866F0900F550876F090091
:101BD0000900F550E96E0900F550EA6E09000900A8
:101BE0000900F550886F0900F550896F0900090058
:101BF000F6CF8CF1F7CF8DF1F8CF8EF185C1F6FFDE
:101C000086C1F7FF87C1F8FF0101885302E18953BC
:101C100007E00900F550EE6E8807F8E28907F9D76A
:101C20008CC1F6FF8DC1F7FF8EC1F8FF01018A0755
:081C3000000E8B5BBFD7120010
:081C3800D9CFE6FFDACFE6FF89
:101C4000E1CFD9FFE2CFDAFFAC6AAB6AFD0EDBB0C1
:101C5000AC88DBA202D0AC8CAB8CDBB4AC8EDBA648
:101C600002D0AB8801D0AB8ADBA802D0AC8401D013
:101C7000AC949E98DBAC02D09D8A01D09D9A9E9A2E
:101C8000DBAE02D09D8801D09D98FB0EDB50AF6E7D
:101C9000AC8AAB8E949C948EAC50100B04E0AC508C
:101CA000800B01E1948CE552E5CFDAFFE7CFD9FF55
:021CB000120020
:0E1CB200000EF36E00EE00F0060E01D81200D8
:101CC000EA6002D0EE6AFCD7F350E9601200EE6AD7
:021CD000FCD73F
:0E1CD20015EE00F025EE00F0F86A019CCDEC56
:0E1CE0000DF003EC00F085EC0EF0FBD71200C7
:021CEE00FE0EE8
:101CF000E3CFE9FFFF0EE3CFEAFFF36AF46AEE52A7
:0A1D000003E0F34AF42AFBD71200B7
:061D0A0066EC0DF045EC53
:0E1D100004F087EC04F00BEC05F0FDD7120098
:011D1E0000C4
:011D1F00655E
:0F1D20007272657572206261756472617465001C
:00000001FF
