:020000040000FA
:06000000F1EF1AF01200FE
:020006001200E6
:0600080027EF12F01200C8
:02000E000400EC
:100010007A360000EE0500000300000059360000AB
:10002000BC0100002100000052360000DD0100008C
:100030000700000041360000F1050000010000004B
:100040005CEC05F0FB0EDBCFF3FFDB06F3500009A1
:100050000AE0AAEC05F0FA0E15EC06F0F3E1011C3B
:10006000F1E1010E01D0000E8BEF05F05CEC05F024
:100070003B0EE12402E3E168E652E16E010EDB6A29
:10008000020EDB6AF90EDBCFF6FFFA0EDBCFF7FFCD
:10009000FB0EDBCFF8FF0800F550DF6EDF5002E10A
:1000A000AFEF04F0250EDF5C02E0A2EF04F0030ED8
:1000B000DB6A040EDB6A050EDB6A060EDB6A070EDE
:1000C000DB6AC4EC04F02D0EDF5C0CE02B0EDF5C71
:1000D00009E0200EDF5C06E0230EDF5C03E0300E5B
:1000E000DF5C1AE1DF50300A14E0130A0FE0030A64
:1000F0000AE00B0A05E0060AE4E1030EDB80E1D723
:10010000030EDB82DED7030EDB84DBD7030EDB8638
:10011000D8D7030EDB88D5D72A0EDF5C1BE1C0ECF5
:1001200004F00EEC05F010E0030EDB80206821687F
:10013000130EDBCF25F0140EDBCF26F0A2EC10F06F
:10014000040E1EC0DBFF03D0130EF7EC04F0C4EC6A
:1001500004F00BD0090EDB6A65EC05F003E0D9EC86
:1001600005F0FAD7090EF7EC04F0030EDBB0DB98CC
:100170002E0EDF5C1BE1C4EC04F02A0EDF5C0BE109
:10018000C0EC04F00EEC05F003E1130E49EC05F0B1
:10019000C4EC04F00BD0090EDB6A65EC05F003E05B
:1001A000D9EC05F0FAD7090E49EC05F0680EDF5CD2
:1001B00007E1C4EC04F0680EDF5C1DE1030E18D00B
:1001C000740EDF5C17E07A0EDF5C14E0480EDF5C33
:1001D00006E0540EDF5C03E05A0EDF5C02E1020E23
:1001E00007D06C0EDF5C03E06A0EDF5C04E1010EF9
:1001F0009CEC05F0C9DBDF506E0A01E17FD31E0ADB
:1002000001E192D1200A01E18FD13F0A01E149D1F8
:100210001A0A01E146D10D0A01E143D1200A01E1A8
:1002200040D13A0A01E13DD1200A01E13AD1260A42
:1002300001E135D10D0A01E132D11A0A01E1D9D02B
:10024000200A4AE0300A1FE0460A0EE0250A01E0D3
:1002500083D3D950F90FE96EFF0EDA20EA6E010E52
:10026000EE5E000EEE5AEE5AAAEC05F0250EE66E92
:1002700095DB03E1011C01E169D3A6EC05F001E285
:100280006BD3DB2A69D3080EDB6A040EDB5001084E
:1002900006E2040EDB046EEC05F0DB508BDB080E8F
:1002A000DB5009E0030EDB50010B05E172DB01E0DE
:1002B0004DD3080EDB6A64DBEFCFDFFF1EEC06F0E8
:1002C00003E1011C01E142D3A6EC05F001E3DB2AC6
:1002D00060DB01E141D33AD3070EDB5002080FE1A6
:1002E000EAEC05F0030EB1EC05F00E0EEECFDBFFED
:1002F0000F0EEECFDBFF100EEECFDBFF20D0F70EA0
:10030000DBCF03F0F80EDBCF04F0020E035E000E2D
:10031000045AF70E03C0DBFFF80E04C0DBFF03C076
:10032000E9FF04C0EAFFA1EC05F0026A0E0E00C06E
:10033000DBFF0F0E01C0DBFF100E02C0DBFF0E0E55
:10034000DBCFE6FF0F0EDBCFE6FF100EDBCFE6FFC5
:1003500066EC18F0E552E552E552130E1FC0DBFFC4
:10036000140E20C0DBFF060EDB5005E0130EE5EC9B
:1003700005F001E26ADB09EC06F002E2130E37DB5E
:10038000CCEC05F006E0040EE5EC05F002E2050E0B
:100390002EDB030EDBB005D0FCDA01E0D7D2080E6D
:1003A000DB6A090EDB6A0E0EDBCFF6FF0F0EDBCF2A
:1003B000F7FF100EDBCFF8FF0800F550DF6EDF50BF
:1003C00014E00FEC06F011E21EEC06F003E1011C54
:1003D00001E1BCD2BBDB01E3DB2A090EDB2AD950E9
:1003E0000E0FE96E000ECBDBE7D7D3DA01E1B4D212
:1003F000ADD2C6DA110EEECFDBFF120EEDCFDBFF72
:10040000110EDBCFE6FF120EDBCFE6FF58EC18F043
:10041000E552E552130EF3CFDBFF140EF4CFDBFFF2
:10042000060EDB5004E0130ED0DB01E20EDB09EC1C
:1004300006F002E2130EDBDAAFDB05E0040EC5DBEB
:1004400002E2050ED4DA030EDBB005D0A2DA01E039
:100450007DD2080EDB6A090EDB6A110EDBCFE9FFE5
:10046000120EDBCFEAFFEFCFDFFFDF5014E0D7DB68
:1004700012E2E4DB03E1011C01E168D267DB01E386
:10048000DB2A090EDB2A110EDB2ADBCFE9FF120E75
:10049000E8E3DB2AE6D77DDA01E15ED257D2030E2C
:1004A000DB8E070EDB0410E195DB040E5ADB0A0E2F
:1004B000EECFDBFF0B0EEECFDBFF0C0EEECFDBFF44
:1004C0000D0EEECFDBFF6CD0070EDB5003082CE1E6
:1004D000030EDBAE0DD0B2DA020E76DAEFCF00F00B
:1004E000016A026A036A00AE39D00168026835D039
:1004F000F70EDBCF01F0F80EDBCF02F0020E015E4B
:10050000000E025AF70E01C0DBFFF80E02C0DBFF3F
:1005100001C0E9FF02C0EAFFEFCF00F00A0E00C001
:10052000DBFF0B0EDB6A38D0070EDB50020809E157
:10053000030EDBAE04D059DB02AE10D00ED055DB7B
:100540000DD0030EDBAE12D079DA020E3DDAF9DA05
:10055000026A036A01AE02D002680368E2DA0C0E96
:1005600002C0DBFF0D0E03C0DBFF1AD0F70EDBCF9E
:1005700002F0F80EDBCF03F0020E025E000E035A0B
:10058000F70E02C0DBFFF80E03C0DBFF02C0E9FF7D
:1005900003C0EAFFD6DAC5DA0C0EDB6A0D0EDB6AA1
:1005A000060EDB5005E1010EF36E050EF3CFDBFF07
:1005B000150EDB6A160EDB6AD950370F006E000E7F
:1005C000DA20016E390E00C0DBFF3A0E01C0DBFFFE
:1005D000380EDB6A080EDB6A0A0EAEDADF50780AE4
:1005E00012E0200A10E0280A0CE0200A0AE03F0A84
:1005F00006E00D0A02E0200A08E1020E05D0080E0E
:1006000003D0080EDF26100E97DA030EDBBE02D0F1
:10061000DB92DB94DB50800B24E08ADAD890030E67
:10062000EB50000A08E6000EEE5C000EEE58000EDD
:10063000EE58000EEE5815E213DA23682468256898
:1006400026685DEC1AF00A0E1AC0DBFF0B0E1BC009
:10065000DBFF0C0E1CC0DBFF0D0E1DC0DBFF2D0EE3
:1006600008D0030EDBA202D02B0E03D0DBA408D0EF
:10067000200EF36E170EF3CFDBFF150EDB2A02D030
:10068000170EDB6A050EDB5003E1B7D901E189D013
:10069000300E006E360E016E000E026E070EDBCFBE
:1006A00003F0046A056A066A03C023F004C024F05C
:1006B00005C025F006C026F0D3D995EC1AF00050FD
:1006C0001A24F36E01501B20F46E02501C20F86EA9
:1006D000F4CFF7FFF3CFF6FF0800090EF5CFDBFFED
:1006E000580EDF5C0FE1610EF36E090E7BD90AE351
:1006F000200E006E090EDBCFE7FF0050E75E090E0B
:10070000E7CFDBFF070EDBCF00F0016A026A036A66
:100710000FDA00C023F001C024F002C025F003C0AE
:1007200026F0EECF1EF0EECF1FF0EECF20F0EFCF91
:1007300021F095EC1AF021C0EDFF20C0EDFF1FC0A5
:10074000EDFF1EC0EFFF390EDBCFE9FFDB063A0EEF
:10075000DBCFEAFF01E2DB06090EDBCFEFFF150E70
:10076000DB2A4BD995E1030EDBA61DD06F0EDF5CB3
:1007700006E1C1D918E3150EDB285BDA14D0780E38
:10078000DF5C09E0580EDF5C06E0620EDF5C03E030
:10079000420EDF5C08E1020EF36E160EF3CFDBFFB4
:1007A00002D0150EDB6A030EDB50100B0EE0040EB8
:1007B000DBCF00F0050EDB50D880005406E2060EB9
:1007C000DB5003E1040EDB5034DA95D90AE2050E62
:1007D000DBCFE7FF150EDB50E75E050EE7CFDBFF53
:1007E00002D0050EDB6A040EDBCF00F0160E45D9F1
:1007F000D880005414E2160EDBCFE6FF150EDBCFD7
:10080000E6FF040EDBCFE6FF050EDB50E552E75CAA
:10081000E552D880E754E552D880E7545FD9030EFB
:10082000DB50010B0BE1080EDB5008E0B2D801E011
:100830008DD0080EDB50BED8080EDB6A170EDB50D9
:1008400007E088D9170EF1D903E1011C01E17ED040
:10085000160EDB5016E07ED9300EE66E9FD802E110
:10086000011C74E077D9DFCFE6FFA5EC19F0E55263
:10087000E552E552F4CF01F00001F31C02E1011C46
:1008800065E0050EDBCF00F0160EDB50D88000547B
:1008900009E2050EDBCFE7FF160EDB50E75E050E23
:1008A000E7CFDBFF300EE66E050ECBD94FE1390EF8
:1008B000DB2ADBCFE9FF3A0E01E3DB2ADBCFEAFFDD
:1008C000090EEFCFDBFFDB500EE044D9090EADD9A6
:1008D00002E1011C3BE0390EDB2ADBCFE9FF3A0ED7
:1008E000EDE3DB2AEBD755D831E1160EDBCFE6FF7F
:1008F000080EC3D8E552E7245DD82ED0070EDB5092
:10090000030A1CE0010A14E0030A07E07BD9DBCFED
:10091000EEFF020EDBCFEDFF1FD0F5D8056A03AE68
:1009200002D0046805682CD8BCD805C0EEFF14D0EE
:10093000EAD803BE046824D8B4D80ED063D9DBCF7C
:10094000EFFF0AD07BD905E1011C03E1F368F468ED
:1009500010D0FCD801E3DB2A79D94BEF00F0010E6F
:10096000DBCF00F0020EDBCF01F000C0F3FF01C0CF
:10097000F4FF3B0EE15C02E2E16AE552E16ECBD0AE
:1009800029D9020EB1EF05F061D90800F550DF6EEC
:100990001200200EE66E080E21EF06F0A5EC19F00D
:1009A000E552E552E552F3CF00F0F4CF01F000013B
:1009B000F31C1200006E016AD950010F4DD900508E
:1009C000EE260150ED221200045E000E055AF70ECD
:1009D00004C0DBFFF80E05C0DBFF04C0E9FF05C063
:1009E000EAFF1200DBCFF4FFF350F45C1200DB509F
:1009F000E76E040EE7CFDBFF12000A0EDBCF00F03C
:100A00000B0EDBCF01F00C0EDBCF02F00D0EDBCFB7
:100A100003F000500110021003101200130EEECF6D
:100A2000DBFF140EEDCFDBFF130EDBCF00F0140E57
:100A3000DBCF01F00001800E01141200F70EDBCFB6
:100A400004F0F80EDBCF05F01200050EDB50E66E69
:100A5000D950130F01D9E552E750EE6EED6A12003E
:100A60000A0EDBCF1EF00B0EDBCF1FF00C0EDBCF20
:100A700020F00D0EDBCF21F01200DBCFE6FF150ECC
:100A8000DBCFE6FF050EDB50E552E724E552E72415
:100A90001200DB50CED8010EF36E060EF3CFDBFF53
:100AA0001200EE50EFCFEAFFE96E02C0EEFF03C086
:100AB000EEFF04C0EEFF1200D9CFE6FFDACFE6FF6B
:100AC000E1CFD9FFE2CFDAFF1200DFCFE6FFE66A1F
:100AD000CFEC1AF0E552E552F3501200E76E080E23
:100AE000E7CFDBFF1200EECF00F0EECF01F0EFCF4B
:100AF00002F0036A1200050EDBCF00F0150EDB508A
:100B0000D88000541200010EDBCF02F0020EDBCFC2
:100B100003F0046A1200E552E5CFDAFFE7CFD9FF10
:100B200012000A0E00C0DBFF0B0E01C0DBFF12003B
:100B3000D9500A0F2CEF06F0F36E070EF3CFDBFF50
:100B40001200EECF00F0EFCF01F01200010EDB2A11
:100B5000020E1200FC0EDBCFE6FFFD0EDBCFE6FF40
:100B60001200005E000E015AF70E00C0DBFFF80E07
:100B700001C0DBFF00C0E9FF01C0EAFF1200DA207C
:100B8000EA6EEF2AEECFF6FF000EEF22EECFF7FF70
:100B9000EF22EECFF8FF1200040EDBCFE6FF130EBC
:100BA000DB50E552E75C9ADFDB5004DF060EDB50DA
:100BB0001200090EDB500A0DF350DF24D00FE76E50
:100BC000090EE7CFDBFFC4EF04F0DB50F36E050E38
:100BD000F2EF04F0F70EDBCF00F0F80EDBCF01F000
:100BE0001200DFCFE6FFCEEF04F028DF030EECDECD
:100BF00073EF05F020EC00F0E552E552E552E552C6
:100C000000091200BDDEEE50EFCFEAFFE96E010EE3
:100C10001200130EDB50F36E040EF2EF04F0040E1C
:100C2000DB50F36E090EF2EF04F0DBCFE6FFCEEF00
:100C300004F0E76E050EE7CFDBFF12008BDFF1EF6C
:100C400005F0DBCFE6FF86DFFAEF05F0D950F90FAC
:100C5000E96EFF0EBFEF05F0E96E000EDA20EA6ED6
:020C6000120080
:0E0C6200D9CFE6FFE1CFD9FF290EE126090E1A
:100C7000DE6EDD6A020E00C1DBFF030E01C1DBFF89
:100C8000040E02C1DBFF050E03C1DBFF060EDB68AD
:100C9000070EDB68080EDB68090EDB68010EF36ED9
:100CA0000A0EF3CFDBFFD9CFE6FFDACFE6FFE66827
:100CB000E668E668E66800C1E6FF01C1E6FF02C13A
:100CC000E6FF03C1E6FFFBEC0AF0006E0A0EE15EF0
:100CD0000050290EE15C02E2E16AE552E16EE55264
:100CE000E7CFD9FF1200D9CFE6FFE1CFD9FF290E18
:100CF000E126F90EDBCFE6FFFA0EDBCFE6FF58EC7C
:100D000018F0E552E552F3CF00F0F4CF01F0090EF0
:100D10000026000E012200C0DEFF01C0DDFF020E32
:100D200000C1DBFF030E01C1DBFF040E02C1DBFFCC
:100D3000050E03C1DBFFD950FB0FE96EFF0EDA2071
:100D4000EA6E060EEECFDBFF070EEECFDBFF080EDE
:100D5000EECFDBFF090EEECFDBFF050EF36E0A0EC2
:100D6000F3CFDBFFF90EDBCFE6FFFA0EDBCFE6FFBA
:100D7000D9500B0FE66E000EDA20E66E37EC18F055
:100D8000E552E552E552E552D9CFE6FFDACFE6FF6C
:100D9000D950FB0FE96EFF0EDA20EA6EEECFE6FFC8
:100DA000EECFE6FFEECFE6FFEFCFE6FF00C1E6FFB6
:100DB00001C1E6FF02C1E6FF03C1E6FFFBEC0AF05A
:100DC000006E0A0EE15E0050290EE15C02E2E16A6B
:100DD000E552E16EE552E7CFD9FF1200D9CFE6FF29
:100DE000E1CFD9FF290EE126020E00C1DBFF030E81
:100DF00001C1DBFF040E02C1DBFF050E03C1DBFFF7
:100E0000060EDB68070EDB68080EDB68090EDB6880
:100E1000040EF36E0A0EF3CFDBFF0B0E04C1DBFFF3
:100E200001010451010A07E0010A01E03BD00A0E6A
:100E3000DE6EDD6A37D00E0EDE6EDD6A05C100F0B3
:100E400006C101F007C102F008C103F0180ED890E6
:100E50000332023201320032E806F9E10050E76E57
:100E60000C0EE7CFDBFF07C100F008C101F0000165
:100E7000026A036A0050E76E0D0EE7CFDBFF06C182
:100E800000F007C101F008C102F0036A0050E76EEC
:100E90000E0EE7CFDBFF01010551E76E0F0EE7CF26
:100EA000DBFF00D0D9CFE6FFDACFE6FFE668E668E1
:100EB000E668E66800C1E6FF01C1E6FF02C1E6FFA1
:100EC00003C1E6FFFBEC0AF0006E0A0EE15E005083
:100ED000290EE15C02E2E16AE552E16EE552E7CFFC
:100EE000D9FF1200D9CFE6FFE1CFD9FF290EE126C5
:100EF000020E00C1DBFF030E01C1DBFF040E02C1C5
:100F0000DBFF050E03C1DBFF060EDB68070EDB68A7
:100F1000080EDB68090EDB68020EF36E0A0EF3CFD3
:100F2000DBFF0B0E04C1DBFF01010451010A07E0E6
:100F3000010A01E03BD00A0EDE6EDD6A37D00E0EEC
:100F4000DE6EDD6A05C100F006C101F007C102F0E6
:100F500008C103F0180ED890033202320132003279
:100F6000E806F9E10050E76E0C0EE7CFDBFF07C1A2
:100F700000F008C101F00001026A036A0050E76E48
:100F80000D0EE7CFDBFF06C100F007C101F008C17D
:100F900002F0036A0050E76E0E0EE7CFDBFF01019F
:100FA0000551E76E0F0EE7CFDBFF00D0D9CFE6FF8C
:100FB000DACFE6FFE668E668E668E66800C1E6FFC5
:100FC00001C1E6FF02C1E6FF03C1E6FFFBEC0AF048
:100FD000006E0A0EE15E0050290EE15C02E2E16A59
:100FE000E552E16EE552E7CFD9FF1200D9CFE6FF17
:100FF000E1CFD9FF250EE126040EDB6A050EDB6A80
:10100000060EDB6A070EDB6A0D0EDB6A0E0EDB6A6C
:101010000F0EDB6A05010A510B1101E1E2D2DE6A13
:10102000DD6ADECF00F0DDCF01F0D890015004E69C
:10103000040E005C000E01583DE2000EE66E050E47
:10104000E66E47EC0EF0E552E552006E016A026A68
:10105000036A080E206E216ADECF25F0DDCF26F070
:10106000A2EC10F01E501F0B07E0D890003601369E
:1010700002360336E806F9E1D950040FE96EDACFFB
:10108000EAFFEE500026EE500122EE500222EE5012
:101090000322040E00C0DBFF050E01C0DBFF060EBD
:1010A00002C0DBFF070E03C0DBFFDF2A010E01E3F6
:1010B000DB2AB7D7000EE66E050EE66E47EC0EF0A3
:1010C000E552E552E76E0C0EE7CFDBFF000EE66E51
:1010D000050EE66E47EC0EF0E552E552E76E0D0E9A
:1010E000E7CFDBFF0C0EDB50050A01E1F3D1070A65
:1010F00003E0060A01E06AD2DE6ADD6ADECF00F0B4
:10110000DDCF01F001010951005C0A51015837E2BD
:10111000040EDBCF00F0050EDBCF01F0060EDBCFB7
:1011200002F0070EDBCF03F0DECFE9FFDDCFEAFFF1
:10113000120EEA02F3CFEAFFE902F3CFE9FFF4501F
:10114000EA260B0EE926010EEA22EE50001809E10C
:10115000EE50011806E1EE50021803E1EE500318BC
:1011600000E108E1010EF36E0E0EF3CFDBFF0F0E70
:10117000DFCFDBFFDF2A010E01E3DB2ABFD70E0E34
:10118000DB500BE10F0E09C1DBFF050E095D000E00
:101190000A5903E2092B000E0A23050EF36E0F0E07
:1011A000DBCFF4FFF350F45C01E375D10F0EDB509D
:1011B000120DF3CFE9FFF4CFEAFF0B0EE926010E83
:1011C000EA22040EDBCFEEFF050EDBCFEEFF060EAC
:1011D000DBCFEEFF070EDBCFEEFF000EE66E050E57
:1011E000E66E47EC0EF0E552E552E66E0F0EDB5070
:1011F000120DF3CFE9FFF4CFEAFF0B0EE926010E43
:10120000EA22040EE926000EEA22E552E750EF6ECC
:101210000D0EDB04FC0BE842E842E76E100EE7CF50
:10122000DBFF0F0EDB50120DF3CFE9FFF4CFEAFF27
:101230000B0EE926010EEA22050EE926000EEA222F
:10124000100EDBCFEFFFDE6ADD6ADECF00F0DDCF10
:1012500001F0100EDB50000101AE02D0D89003D097
:10126000005C000E015801E3A9D0080EDB6A090EEC
:10127000DB6A0A0EDB6A0B0EDB6A020EDB6A030E08
:10128000DB6A020EDBCF00F0030EDBCF01F0D8905B
:10129000015004E6040E005C000E015850E2080EF6
:1012A000DBCF00F0090EDBCF01F00A0EDBCF02F03E
:1012B0000B0EDBCF03F0080E1F0B07E0D8900036B3
:1012C000013602360336E806F9E100C0E6FF01C048
:1012D000E6FF02C0E6FF03C0E6FF000EE66E050E65
:1012E000E66E47EC0EF0E552E552E552E7CF03F02B
:1012F000E552E7CF02F0E552E7CF01F0E552E7CF44
:1013000000F0046E056A066A076A0450002605505C
:1013100001220650022207500322080E00C0DBFF04
:10132000090E01C0DBFF0A0E02C0DBFF0B0E03C07B
:10133000DBFF020EDB2A030E01E3DB2AA2D7DECF9E
:1013400000F0DDCF01F0D890015004E6030E005C00
:10135000000E01582EE20F0EDB50120DF3CFE9FF05
:10136000F4CFEAFF0B0EE926010EEA22060EE9266B
:10137000000EEA22E9CF00F0EACF01F0040E206E61
:10138000216ADECF25F0DDCF26F0A2EC10F0005070
:101390001E24E96E01501F20EA6E080EDBCFEEFF1F
:1013A000090EDBCFEEFF0A0EDBCFEEFF0B0EDBCF1D
:1013B000EEFFDF2A010E01E3DB2A47D70F0EDB50D9
:1013C000120DF3CFE9FFF4CFEAFF0B0EE926010E71
:1013D000EA22040EE926000EEA22EF5003085AE141
:1013E0000101010E046F0F0EDB50120DF3CFE9FF68
:1013F000F4CFEAFF0B0EE926010EEA22060EE926DB
:10140000000EEA22EECF05F1EECF06F1EECF07F1A6
:10141000EFCF08F105C1E6FF06C1E6FF07C1E6FF11
:1014200008C1E6FF00C1E6FF01C1E6FF02C1E6FF19
:1014300003C1E6FF910E006E350E016E026A00C018
:10144000E6FF01C0E6FF02C0E6FF650EE66E010E94
:10145000E66E00EC19F0036E0D0EE15E03508D0E8A
:10146000E66E010EE66E010EE66EE66E1BEC14F003
:10147000E552E552E552E552650EE66E010EE66E66
:10148000010EE66EE66E1BEC14F0E552E552E552F5
:10149000E55200D01ED0DE6ADD6ADECF00F0DDCF7F
:1014A00001F00D0EDB50000101AE02D0D89003D048
:1014B000005C000E01580DE2000EE66E050EE66EB1
:1014C00047EC0EF0E552E552DF2A010E01E3DB2A7C
:1014D000E4D77CD0DE6ADD6ADECF00F0DDCF01F03C
:1014E0000D0EDB50000101AE02D0D89003D0005C9D
:1014F000000E01581CE2000EE66E050EE66E47EC8B
:101500000EF0E552E552E66ED950110F006EDACFBB
:1015100001F0DE500024E96EDD500120EA6EE55254
:10152000E750EF6EDF2A010E01E3DB2AD5D7D95051
:10153000040FE96EDACFEAFFEECFE6FFEECFE6FF6B
:10154000EECFE6FFEFCFE6FF880E006E350E016EA0
:10155000026A00C0E6FF01C0E6FF02C0E6FF790EA6
:10156000E66E010EE66E00EC19F0036E090EE15E08
:101570000350D950110FE66E000EDA20E66E790E98
:10158000E66E010EE66E13EC18F0E552E552E552F8
:10159000E5528D0EE66E010EE66E020EE66E010E4F
:1015A000E66E1BEC14F0E552E552E552E552790E79
:1015B000E66E010EE66E020EE66E010EE66E1BECA6
:1015C00014F0E552E552E552E55200D0F29E0501D5
:1015D0000A07000E0B5BF28E0C0EDB50040801E1D3
:1015E00081DC250EE15C02E2E16AE552E16EE55242
:0615F000E7CFD9FF120055
:0A15F600D9CFE6FFE1CFD9FF020EC6
:10160000E126BCD8D950FB0FE96EFF0EDA20EA6E56
:10161000EECFE6FFEECFE6FFEECFE6FFEFCFE6FF41
:10162000DAD8E552E552E552E552D950F70FE96EA6
:10163000FF0EDA20EA6EEECFE6FFEECFE6FFEECF4A
:10164000E6FFEFCFE6FFC7D8E552E552E552E55297
:10165000F50EDBCFE9FFF60EDBCFEAFFEECFE6FFBC
:10166000EFCFE6FF94D8E552E552F50EDBCFE9FF68
:10167000F60EDBCFEAFF020EE926000EEA22EECFDD
:10168000E6FFEECFE6FFEECFE6FFEFCFE6FFA3D813
:10169000E552E552E552E552F50EDBCFE9FFF60ED5
:1016A000DBCFEAFF060EE926000EEA22EECFE6FFC8
:1016B000EECFE6FFEECFE6FFEFCFE6FF8CD8E552A8
:1016C000E552E552E552F50EDBCFE9FFF60EDBCF32
:1016D000EAFF0A0EE926000EEA22EF50E66E41D834
:1016E000E552DE6ADD6ADECF00F0DDCF01F0F50EF7
:1016F000DBCFE9FFF60EDBCFEAFFEECF02F0EFCF54
:1017000003F0090E025E000E035A0250005C035003
:1017100001581DE2F50EDBCFE9FFF60EDBCFEAFF45
:101720000B0EE926000EEA22E9CF00F0EACF01F025
:10173000DE500024E96EDD500120EA6EEF50E66EC7
:1017400010D8E552DF2A010E01E3DB2ACCD7020EC6
:10175000E15C02E2E16AE552E16EE552E7CFD9FFD2
:101760001200D9CFE6FFE1CFD9FF9EA8FED7FE0E2B
:10177000DB50AD6EE552E7CFD9FF1200AA0EE66E40
:10178000F0DFE552550EE66EECDFE5521200D9CFE0
:10179000E6FFE1CFD9FFFD0EDBCF00F0FE0EDBCF81
:1017A00001F001C000F0016A0050E66EDADFE55298
:1017B000FF0EE76EFD0EDBCF00F0FE0EDBCF01F07B
:1017C000E7500016016A0050E66ECBDFE552E552A5
:1017D000E7CFD9FF1200D9CFE6FFE1CFD9FFFB0E4B
:1017E000DBCF00F0FC0EDBCF01F0FD0EDBCF02F013
:1017F000FE0EDBCF03F0180ED89003320232013216
:101800000032E806F9E10050E66EABDFE552FB0E70
:10181000DBCF00F0FC0EDBCF01F0FD0EDBCF02F0E2
:10182000FE0EDBCF03F0100ED890033202320132ED
:101830000032E806F9E10050E66E93DFE552FB0E58
:10184000DBCF00F0FC0EDBCF01F0FD0EDBCF02F0B2
:10185000FE0EDBCF03F0080ED890033202320132C5
:101860000032E806F9E10050E66E7BDFE552FB0E40
:10187000DBCF00F0FC0EDBCF01F0FD0EDBCF02F082
:10188000FE0EDBCF03F00050E66E6BDFE552E55253
:10189000E7CFD9FF1200D9CFE6FFE1CFD9FF040E81
:1018A000E126FB0EDBCF08F0FC0EDBCF09F0FD0ECE
:1018B000DBCF0AF0FE0EDBCF0BF0246A240E256E80
:1018C000740E266E490E276E08C01FF009C020F066
:1018D0000AC021F00BC022F035EC10F0F70EDBCF80
:1018E00024F0F80EDBCF25F0F90EDBCF26F0FA0E50
:1018F000DBCF27F0E2EC0FF01FC004F020C005F0B2
:1019000021C006F022C007F0246A256A800E266EE8
:10191000410E276E04C01FF005C020F006C021F064
:1019200007C022F0E2EC0FF01FC000F020C001F071
:1019300021C002F022C003F0246A256A800E266EC0
:101940003F0E276E00C01FF001C020F002C021F042
:1019500003C022F04BEC0FF01FC0DEFF20C0DEFF03
:1019600021C0DEFF22C0DDFFDD52DD52D9CFE9FF0D
:10197000DACFEAFFEECF00F0EECF01F0EECF02F0CB
:10198000EFCF03F0246A256A7F0E266E430E276E82
:1019900000C01FF001C020F002C021F003C022F0FF
:1019A00043EC11F0010A01E098D0D9CFE9FFDACF7A
:1019B000EAFFEECF08F0EECF09F0EECF0AF0EFCF5E
:1019C0000BF0246A256A800E266E3F0E276E08C033
:1019D0001FF009C020F00AC021F00BC022F04CEC2F
:1019E0000FF01FC004F020C005F021C006F022C097
:1019F00007F0246A256A800E266E400E276E04C00A
:101A00001FF005C020F006C021F007C022F0E2EC74
:101A10000FF01FC000F020C001F021C002F022C072
:101A200003F0246A256A800E266E3F0E276E00C0E2
:101A30001FF001C020F002C021F003C022F04BECE7
:101A40000FF01FC0DEFF20C0DEFF21C0DEFF22C07E
:101A5000DDFFDD52DD52D9CFE9FFDACFEAFFEECF6D
:101A600000F0EECF01F0EECF02F0EFCF03F0246AEA
:101A7000256A7F0E266E430E276E00C01FF001C040
:101A800020F002C021F003C022F043EC11F0010A63
:101A900003E1000E42D041D0F50EDBCFE9FFF60E98
:101AA000DBCFEAFFEF0EEF6EDECF1FF0DECF20F0D0
:101AB000DECF21F0DDCF22F0DD52DD52EDEC10F073
:101AC0002150E66EF30EDBCFE9FFF40EDBCFEAFF29
:101AD000E552E750EF6E010E20D0F50EDBCFE9FFA7
:101AE000F60EDBCFEAFFEF68DECF1FF0DECF20F08F
:101AF000DECF21F0DDCF22F0DD52DD52EDEC10F033
:101B00002150E66EF30EDBCFE9FFF40EDBCFEAFFE8
:101B1000E552E750EF6E010E00D0006E040EE15C5E
:101B200002E2E16AE552E16E0050E552E7CFD9FFEB
:101B30001200D9CFE6FFE1CFD9FFFC0EDBCFE9FFE2
:101B4000FD0EDBCFEAFF040EE926000EEA22EECFFF
:101B500000F0EFCF01F0FC0EDBCFE9FFFD0EDBCF95
:101B6000EAFF060EE926000EEA22EECF02F0EFCFE2
:101B700003F00250001802E1035001180DE1FC0EC1
:101B8000DBCFE9FFFD0EDBCFEAFF080EE926000EF2
:101B9000EA22EE2AEF2277D0FC0EDBCFE9FFFD0E22
:101BA000DBCFEAFF020EE926000EEA22EE50EFCF6D
:101BB000EAFFE96EFE0EDBCFEFFFFC0EDBCFE9FFA5
:101BC000FD0EDBCFEAFF040EE926000EEA22EE2A24
:101BD000EF22FC0EDBCFE9FFFD0EDBCFEAFF020EAA
:101BE000E926000EEA22EE2AEF22FC0EDBCFE9FF07
:101BF000FD0EDBCFEAFF020EE926000EEA22EECF51
:101C000000F0EFCF01F0FC0EDBCFE9FFFD0EDBCFE4
:101C1000EAFF0C0EE926000EEA22E9CF04F0EACF33
:101C200005F0FC0EDBCFE9FFFD0EDBCFEAFF060E71
:101C3000E926000EEA220450EE24026E0550EE2042
:101C4000036E0250001802E1035001181CE1FC0E63
:101C5000DBCFE9FFFD0EDBCFEAFF0C0EE926000E1D
:101C6000EA22E9CF00F0EACF01F0FC0EDBCFE9FF7A
:101C7000FD0EDBCFEAFF020EE926000EEA2200C0CD
:101C8000EEFF01C0EDFFE552E7CFD9FF1200D9CF3B
:101C9000E6FFE1CFD9FFE652FD0EDBCFE9FFFE0EF6
:101CA000DBCFEAFF040EE926000EEA22EE50ED102B
:101CB00003E1000E6CD06BD0FD0EDBCFE9FFFE0E12
:101CC000DBCFEAFFEE50EFCFEAFFE96EEFCFDFFFA9
:101CD000F29EFD0EDBCFE9FFFE0EDBCFEAFF040E26
:101CE000E926000EEA22EE06EF5AF28EFD0EDBCF59
:101CF000E9FFFE0EDBCFEAFFEE2A000EEF22FD0E1B
:101D0000DBCFE9FFFE0EDBCFEAFFEECF00F0EFCF37
:101D100001F0FD0EDBCFE9FFFE0EDBCFEAFF0C0E7C
:101D2000E926000EEA22E9CF04F0EACF05F0FD0E25
:101D3000DBCFE9FFFE0EDBCFEAFF060EE926000E41
:101D4000EA220450EE24026E0550EE20036E02508B
:101D5000001802E10350011818E1FD0EDBCFE9FF86
:101D6000FE0EDBCFEAFF0C0EE926000EEA22E9CFD9
:101D700000F0EACF01F0FD0EDBCFE9FFFE0EDBCF76
:101D8000EAFF00C0EEFF01C0EDFFDF5000D0E552DA
:101D9000E552E7CFD9FF1200D9CFE6FFE1CFD9FF57
:101DA000FD0EDBCFE9FFFE0EDBCFEAFF040EEB6A90
:101DB000050EEB6AFD0EDBCFE9FFFE0EDBCFEAFF7F
:101DC000080EEB6A090EEB6AFD0EDBCFE9FFFE0E93
:101DD000DBCFEAFF0A0EEB6A0B0EEB6AFD0EDBCFE0
:101DE000E9FFFE0EDBCFEAFF060EE926000EEA222F
:101DF000FB0EDBCFEEFFFC0EDBCFEDFFFD0EDBCFEE
:101E0000E9FFFE0EDBCFEAFF0C0EE926000EEA2208
:101E1000E9CF00F0EACF01F0FD0EDBCFE9FFFE0EC7
:101E2000DBCFEAFF020EE926000EEA2200C0EEFF39
:101E300001C0EDFFFD0EDBCFE9FFFE0EDBCFEAFFB9
:101E40000C0EE926000EEA22E9CF00F0EACF01F0FD
:101E5000FD0EDBCFE9FFFE0EDBCFEAFF00C0EEFF99
:0C1E600001C0EDFFE552E7CFD9FF1200F2
:041E6C00199E08D0E3
:101E7000199E21AE05D0206C211EE86A2122198E00
:101E800021C01BF020C01AF02B6A2A6A8E0E1C6E2D
:101E90001D6ABDEF11F0277E196AF9EC11F011EC03
:101EA00012F019B6A1EF11F019A20AD019AA03D0A5
:101EB00019BEA1EF11F019A4ADEF11F0AAEF11F0C6
:101EC00019AA05D019ACADEF11F0AAEF11F019A0C5
:101ED0000AD019A808D019BE04D019A402D0B6EFB0
:101EE00011F0BAEF11F02A6A1D6A2750225C296EA0
:101EF00010E31FC02BF020C01AF021C01BF022C03D
:101F000028F024C01FF025C020F026C021F0193A87
:101F100009D024C02BF025C01AF026C01BF027C022
:101F200028F0296C199E19BC198E28C01CF019B014
:101F3000E9EF11F01A0E2960E9EF11F01C6A226A2C
:101F400019A408D01F6C201E211E221EE86A202220
:101F50002122222219AC08D02B6C1A1E1B1E1C1E1B
:101F6000E86A1A221B221C221E6A295207E0223428
:101F7000213220321F321E32292EF9D71F502B2634
:101F800020501A2221501B2222501C221EC02AF04F
:101F9000199E1CAE0BD02A6C2B1E1A1E1B1E1C1E5B
:101FA000E86A2B221A221B221C22198E1CA006D0A2
:101FB000D8801B321A322B322A32282A28C01CF031
:101FC000BDEF11F0196AF9EC11F011EC12F019B62D
:101FD000A1EF11F019A205D019BAA1EF11F0A8EFE5
:101FE00011F019BAB4EF11F019A005D019B8A1EF8A
:101FF00011F0B4EF11F019B8A8EF11F01D6A7F0EBF
:1020000022241C6EE86A1D2227501C5EE86A1D5AB5
:102010001A0E286E226A2A6A2B6A1A6A1B6A2450D0
:102020001F5E2550205A2650215A000E225A09E7D9
:1020300024501F262550202226502122000E222225
:1020400001D02A8AD8901F36203621362236D890E1
:102050002A362B361A361B36282EE1D7215020106F
:102060001F10D8A42A8ABDEF11F0196AF9EC11F0FB
:1020700011EC12F019B6A1EF11F019A205D019B8A0
:10208000A1EF11F0A8EF11F019AA05D019B0A1EF36
:1020900011F0A8EF11F019B002D019A802D0B4EFD6
:1020A00011F01D6A275022241C6EE86A1D227E0E44
:1020B0001C5EE86A1D5A2A6A2B6A1A6A1B6A265035
:1020C0002102F4CF1BF0F3CF1AF025502102F35078
:1020D0002B26F4501A22000E1B2226502002F35009
:1020E0002B26F4501A22000E1B2224502102F350FA
:1020F0002A26F4502B22000E1A221B2225502002E1
:10210000F3502A26F4502B22000E1A221B222650AE
:102110001F02F3502A26F4502B22000E1A221B22F3
:1021200024502002F4502A26000E2B221A221B22B1
:1021300025501F02F4502A26000E2B221A221B22A1
:10214000BDEF11F021C02BF020C02AF02050250255
:10215000F4CF1FF0F3CF1EF021502602F4CF21F070
:10216000F3CF20F02502F3501F26F4502022E86A16
:1021700021222A502602F3501F26F4502022E86A1A
:10218000212226AEC8EF10F02A50205E2B50215A93
:102190002BAE000C2550205E2650215A000C20C08A
:1021A0002AF020502502F4CF1FF0F3CF1EF021506B
:1021B0002602F4CF21F0F3CF20F02502F3501F26A2
:1021C000F4502022E86A21222A502602F3501F26CA
:1021D000F4502022E86A2122000C196AF9EC11F06F
:1021E00019B6F7EF10F019A20AD019B403D07F0E78
:1021F000216E19D0800E216E16D0216A14D019B02C
:10220000FCD7870E2260F1D77E0E2264F6D7860EA9
:10221000225C04E0D8902132222AF9D719A403D0F5
:10222000216C21AEEAD71200196AF9EC11F019B647
:102230001EEF11F019A20ED019B405D07F0E216E39
:10224000FF0E206E1FD0800E216E206A1BD0216AE7
:10225000206A18D019B0FBD78F0E2260EDD77E0E02
:102260002264F5D78E0E225C05E0D8902132203210
:10227000222AF8D719A406D0206C211EE86A212250
:1022800021AEE5D712004CEC11F019B6000C19B0D4
:10229000000C19B4000C010C196AF9EC11F011ECE6
:1022A00012F019B6120019AE08D019A004D019A85E
:1022B00002D019801200199012002750225C0BE105
:1022C0002650215C08E12550205C05E124501F5C6C
:1022D00002E119801200D8A002D0198E10D022502D
:1022E00027C022F0276E215026C021F0266E2050F4
:1022F00025C020F0256E1F5024C01FF0246E2750EB
:10230000225C10E0FF0F09E0199019B403D019AE58
:102310001984120019AE19941200272AD890263277
:102320002532243224501F5E2550205A2650215A2F
:1023300021BEEAD7D8901F3620362136222EF8D774
:10234000C8D77F0E226EFF0E216E206E1F6E120008
:102350007F0E19BEFF0E226E02D07F0E226E800EFF
:10236000216E206A1F6AF3D719AE04D0800E226E48
:10237000216AF7D7226A216AF4D71B501A102B1052
:102380002A10F8E01DBEF0D71BBE0CD01C501D104B
:10239000EBE0D8902A362B361A361B361C06D8A00E
:1023A0001D06F2D71D50D4E11C28D2E02AAE11D070
:1023B0007F0E2A1402E12BA00CD02B2AE86A1A22E5
:1023C0001B2207E3D8801B321A322B321C2A1C280E
:1023D000BFE01C50C9E02BC01FF01AC020F01B3416
:1023E000216E1C30226E2132229E19BE228EA7EF52
:1023F00011F02136223602E31984197E06E1198094
:10240000226A216A206A1F6A1200222803E0D8800B
:1024100021321200D890213202E11982120019866D
:1024200012002636273602E3198C197E06E1198838
:10243000276A266A256A246A1200272803E0D880C2
:0E24400026321200D8902632EAE1198A1200E4
:02244E00DACFE3
:10245000E4FFE2CFDAFFE9CFE4FFEACFE4FFF6CF13
:10246000E4FFF7CFE4FFF5CFE4FFF3CFE4FFF4CFD1
:10247000E4FFFACFE4FF00EE18F0140EE80403E3E3
:10248000EECFE4FFFBD700EE00F0180EE80403E304
:10249000EECFE4FFFBD7E652D9CFE6FFE1CFD9FF7D
:1024A000030EE1269EAA9AD1AE50DF6E0501F151CE
:1024B000070A01E17AD1010A01E1F8D0030A01E13A
:1024C000A0D0010A6AE0070A34E0010A22E0030A08
:1024D0001AE0010A01E082D1AA0EDF5C02E1010EDE
:1024E000F16F0501D46BD56BD66BD76BD86BD96BFD
:1024F000DA6BDB6BDC6BDD6BDE6BDF6BE06BE16B98
:10250000E26BE36B6BD1550EDF5C02E1020EF16F03
:1025100065D10501E22B000EE323080EE21901E16B
:10252000E35106E10501030EF16F0501E26BE36B78
:1025300055D10501E22B000EE323080E1F0BDCC56D
:102540002CF0DDC52DF0DEC52EF0DFC52FF007E045
:10255000D8902C362D362E362F36E806F9E1DFCF0F
:1025600030F0316A326A336A2C5030240501DC6F56
:102570002D503120DD6F2E503220DE6F2F50332052
:10258000DF6F020EE21901E1E35106E10501040EDD
:10259000F16F0501E26BE36B21D10501E22B000E27
:1025A000E323080E1F0BD4C52CF0D5C52DF0D6C5DE
:1025B0002EF0D7C52FF007E0D8902C362D362E36CA
:1025C0002F36E806F9E1DFCF30F0316A326A336A3C
:1025D0002C5030240501D46F2D503120D56F2E5052
:1025E0003220D66F2F503320D76F040EE21901E14D
:1025F000E35106E10501050EF16F0501E26BE36BA6
:10260000EDD00501E22B000EE323080E1F0BD8C509
:102610002CF0D9C52DF0DAC52EF0DBC52FF007E080
:10262000D8902C362D362E362F36E806F9E1DFCF3E
:1026300030F0316A326A336A2C5030240501D86F89
:102640002D503120D96F2E503220DA6F2F50332089
:10265000DB6F040EE21901E1E35127E1E868D819C4
:1026600008E1E868D91905E1E868DA1902E1E868E3
:10267000DB1912E0D80EE96E050EEA6EEE5001018C
:10268000001909E1EE50011906E1EE50021903E1CB
:10269000EE50031900E107E10501060EF16F050197
:1026A000E26BE36B02D00501F16B98D0DF500501BE
:1026B000E06FE16B020EE01901E1E1510AE0050E65
:1026C000E01901E1E15105E0040EE01901E1E151F9
:1026D00069E1010EDB6A020EDB6A010EDBCF2CF032
:1026E000020EDBCF2DF0D8902D5004E6040E2C5CAA
:1026F000000E2D581DE2000EE66E050EE66E050179
:10270000D451E66E99EC0DF0E552E552E552080E13
:102710001F0B08E00501D890D733D633D533D43317
:10272000E806F9E1010EDB2A020E01E3DB2AD5D728
:10273000000EE66E050EE66EE0C5E6FF99EC0DF0C4
:10274000E552E552E552DCC52CF0DDC52DF0DEC5C5
:102750002EF0DFC52FF0090E2C5E000E2D5A2E5ADA
:102760002F5A2CC0E2F52DC0E3F5000EE66E050EE3
:10277000E66EE2C5E6FF99EC0DF0E552E552E55252
:102780000501000ED880E255000EE35504E2050174
:10279000070EF16F06D00501F16B05010A2B000E43
:1027A0000B2302D00501F16B19D0000EE66E050E69
:1027B000E66EDFCFE6FF99EC0DF0E552E552E5520B
:1027C0000501E207000EE35BE251E31106E10501BA
:1027D000F16B05010A2B000E0B2300D0030EE15C08
:1027E00002E2E16AE552E16EE552E7CFD9FFE55238
:1027F00000EE17F0180EE80403E3E5CFEDFFFBD77A
:1028000000EE2BF0140EE80403E3E5CFEDFFFBD759
:10281000E5CFFAFFE5CFF4FFE5CFF3FFE5CFF5FF16
:10282000E5CFF7FFE5CFF6FFE5CFEAFFE5CFE9FF1C
:06283000E5CFDAFF110004
:0A283600D9CFE6FFE1CFD9FF020E73
:10284000E126FE0EDBCF00F0100EE76E0018E8AEBA
:1028500002D0003403D0E750D880005418E3FE0EB5
:10286000DBCF01F0013413E2FD0EDBCF02F0020EEC
:10287000E76E0218E8AE02D0023403D0E750D880E9
:10288000025405E3FD0EDBCF03F0033405E3020E33
:10289000F36EF46A76D075D0FE0EDBCF02F0036AD9
:1028A00002BE036802C0E6FF03C0E6FFFB0EDBCFFB
:1028B000E6FFFC0EDBCFE6FF58EC18F0E552E552E0
:1028C000E552E7CF03F0E552E7CF02F0F3500224E0
:1028D000006EF4500320016E110ED8800054000EDB
:1028E000015411E2FE0EDBCFE6FF100EE552D88058
:1028F000E754010F006E016A00BE016800C0DEFFF0
:1029000001C0DDFF0ED0FB0EDBCFE6FFFC0EDBCF00
:10291000E6FF58EC18F0E552E552F3CFDEFFF4CFB6
:10292000DDFFFD0EDBCFE6FFFE0EDBCFE6FFE6D8D8
:10293000E552E552FB0EDBCFE6FFFC0EDBCFE6FFF8
:10294000DFCFE6FFB3D8E552E552E552FE0EDBCF0E
:10295000E6FF100EE552D880E754010F006E016AC1
:1029600000BE01680050DF1803E10150DE52DD189F
:1029700005E1010EF36EF46A04D003D0F36AF46A41
:1029800000D0020EE15C02E2E16AE552E16EE5523E
:10299000E7CFD9FF1200D9CFE6FFE1CFD9FFFE0E76
:1029A000DBCFF3FFDB06F350000902E00000F7D7AE
:1029B000E552E7CFD9FF1200D9CFE6FFE1CFD9FF2B
:1029C000E652FE0EDBCFF3FFDB06F35000090CE00E
:1029D000040EDF6EDF50DF06000905E0FA0EE66E3A
:1029E000DADFE552F7D7EDD7E552E552E7CFD9FF69
:1029F000120089820000000089921200D9CFE6FF00
:102A0000E1CFD9FF010EE66ED7DFE5528C6AFE0EEC
:102A1000DB380F0B0F0B8C12ECDFF00E8C16FE0E5A
:102A2000DB500F0B8C12E5DFE552E7CFD9FF120028
:102A3000D9CFE6FFE1CFD9FF010EE66EBDDFE5524B
:102A40008C6A8986010EE66EA6DFE552FE0EDB3843
:102A50000F0B0F0B8C12CDDFF00E8C16FE0EDB5021
:102A60000F0B8C12C6DF8996E552E7CFD9FF120013
:102A7000D9CFE6FFE1CFD9FFFD0EDBCFE9FFFE0E98
:102A8000DBCFEAFFEF500EE0FD0EDBCFE9FFDB2AE4
:102A9000FE0EDBCFEAFF01E3DB2AEF50E66EC8DF74
:102AA000E552EAD7E552E7CFD9FF1200D9CFE6FFCA
:102AB000E1CFD9FFFC0EDBCFE9FFFD0EDBCFEAFF54
:102AC000EF5013E0FE0EDB5010E0FE0EDB06FC0EB6
:102AD000DBCFE9FFDB2AFD0EDBCFEAFF01E3DB2AD8
:102AE000EF50E66EA5DFE552E5D7E552E7CFD9FF17
:102AF0001200010EE66E82DFE5521200D9CFE6FF2A
:102B0000E1CFD9FFFD0EDB50020808E1FE0EDB50DD
:102B1000400F800FE66E72DFE55209D0FD0EDB0438
:102B200006E1FE0EDB50800FE66E68DFE552E552EF
:102B3000E7CFD9FF1200929492969292956A899467
:102B40000F0EE66E39DFE552030E8C6E52DF050E76
:102B5000E66E32DFE552030E8C6E4BDFFA0EE66E48
:102B60001ADFE552030E8C6E44DFFA0EE66E13DFB9
:102B7000E552020E8C6E3DDFFA0EE66E0CDFE5527A
:102B8000280EE66E3BDFE5520F0EE66E37DFE552AC
:102B9000B0DF060EE66E32DFE552010EE66EE66A43
:082BA000ADDFE552E552120021
:082BA800D9CFE6FFE1CFD9FF10
:102BB0000A0EE126010EDE6EDD6AFD0EDBCF20F08F
:102BC000FE0EDBCF21F036EC0FF01FC010F020C05E
:102BD00011F021C012F022C013F0246A256A800E81
:102BE000266E400E276E10C01FF011C020F012C0DC
:102BF00021F013C022F035EC10F01FC00CF020C003
:102C00000DF021C00EF022C00FF0246A256A7A0E62
:102C1000266E440E276E0CC01FF00DC020F00EC0B3
:102C200021F00FC022F035EC10F01FC008F020C0DA
:102C300009F021C00AF022C00BF0000EDFCF20F017
:102C4000010EDBCF21F038EC0FF01FC014F020C0D4
:102C500015F021C016F022C017F014C024F015C0E2
:102C600025F016C026F017C027F008C01FF009C0D5
:102C700020F00AC021F00BC022F035EC10F01FC08C
:102C800004F020C005F021C006F022C007F0246A3D
:102C9000256A800E266E400E276E04C01FF005C008
:102CA00020F006C021F007C022F0E2EC0FF01FC0B8
:102CB00000F020C001F021C002F022C003F0246A1D
:102CC000256AC80E266E420E276E00C01FF001C096
:102CD00020F002C021F003C022F0E2EC0FF0020E5F
:102CE0001FC0DBFF030E20C0DBFF040E21C0DBFF93
:102CF000050E22C0DBFF020EDBCF00F0030EDBCFA0
:102D000001F0040EDBCF02F0050EDBCF03F0246AE6
:102D100025687F0E266E470E276E00C01FF001C08B
:102D200020F002C021F003C022F043EC11F0010AB0
:102D300003E1000E49D046D0020EDBCF00F0030EB7
:102D4000DBCF01F0040EDBCF02F0050EDBCF03F08A
:102D5000170E246EB70E256ED10E266E380E276E16
:102D600000C01FF001C020F002C021F003C022F01B
:102D70004CEC0FF014EC11F0080E20C0DBFF090E34
:102D800021C0DBFF060EDB6A070EDB6A060EDBCF17
:102D900000F0070EDBCF01F0080EDBCF02F0090ECA
:102DA000DBCF03F00250005C035001580BE2640ECD
:102DB000E66EE1EC1AF0E552060EDB2A070E01E39F
:102DC000DB2AE4D7010E00D0006E0A0EE15C02E2BD
:102DD000E16AE552E16E0050E552E7CFD9FF1200FB
:102DE000D9CFE6FFE1CFD9FF060EE126010EF36E43
:102DF000040EF3CFDBFF050EDB6A0501EE5130E177
:102E0000010EEE6F006A016A200E026E410E036E23
:102E1000040EDBCF20F0050EDBCF21F038EC0FF0F5
:102E20001FC004F020C005F021C006F022C007F04A
:102E300004C024F005C025F006C026F007C027F026
:102E400000C01FF001C020F002C021F003C022F03A
:102E500035EC10F014EC11F020C0EFF521C0F0F5C6
:102E6000EFC520F0F0C521F0FD0EDBCF25F0FE0E02
:102E7000DBCF26F0CFEC10F01EC0DEFF1FC0DDFF61
:102E8000020EDB6A030EDB6A020EDBCF00F0030EDC
:102E9000DBCF01F0DECF02F0DDCF03F00250005CAB
:102EA000035001580BE2070EE66E0DEC1BF0E552E5
:102EB000020EDB2A030E01E3DB2AE6D7060EE15CF5
:102EC00002E2E16AE552E16EE552E7CFD9FF120076
:102ED000D9CFE6FFE1CFD9FF020EE1260101010EB5
:102EE000006F016B026B036B046B05690669076970
:102EF0000869096B0A6BD950010FE66E000EDA20E3
:102F0000E66ED9CFE6FFDACFE6FFE66AE66A160E8E
:102F1000E66E450EE66EE66AE66A800EE66E400EE6
:102F2000E66E4BEC0CF0006E0C0EE15E00500108FA
:102F30000FE0BC0EE66E010EE66E020EE66E010EAE
:102F4000E66E1BEC14F0E552E552E552E552FFD770
:102F5000320EE66EE66A000EE66E050EE66ECCEC0C
:102F60000EF0E552E552E552E552F26A010EDBCF72
:102F7000E6FFE66A7C0EDF14E66EE7EC19F0E55238
:102F8000E552E5529F8AD08EF28ECC0EE66E010E8F
:102F9000E66E8D0EE66E010EE66E37EC18F0E55229
:102FA000E552E552E55205C1E6FF06C1E6FF07C15D
:102FB000E6FF08C1E6FF00C1E6FF01C1E6FF02C16E
:102FC000E6FF03C1E6FF720E006E350E016E026A67
:102FD00000C0E6FF01C0E6FF02C0E6FF650EE66E38
:102FE000010EE66E00EC19F0036E0D0EE15E03506B
:102FF0009BEC15F079EC15F0650EE66E010EE66EB1
:10300000010EE66EE66E1BEC14F0E552E552E55259
:10301000E552020EE15C02E2E16AE552E16EE55240
:06302000E7CFD9FF12000A
:0A302600D9CFE6FFDACFE6FFFA0E7D
:10303000E3CFD9FFFB0EE3CFDAFFFC0EE3CFE9FFCE
:10304000FD0EE3CFEAFFE9CFF3FFEACFF4FFEE6630
:10305000FED7ED52DFCFEEFFDE66FCD7FF0EE3CFEB
:10306000DAFFE552FF0EE3CFD9FFE5521200D9CFC8
:10307000E6FFDACFE6FFFA0EE3CFD9FFFB0EE3CF90
:10308000DAFFFC0EE3CFE9FFFD0EE3CFEAFFE9CF65
:10309000F3FFEACFF4FFDECFEFFFEE66FCD7FF0EC3
:1030A000E3CFDAFFE552FF0EE3CFD9FFE55212007E
:1030B000FE0EE3CFE9FFFF0EE3CFEAFFF36AF46A07
:1030C000EE5203E0F34AF42AFBD71200FF0EE3CFDF
:1030D000F8FFE552FF0EE3CFF7FFE552FF0EE3CF17
:1030E000F6FFE552E66AE66AE66A0900F55209E08B
:1030F000FD0EE32A05E1FE0EE32A02E1FF0EE32ABC
:10310000F4D7FD0EE3CF1FF0FE0EE3CF20F0FF0E4D
:06311000E3CF21F01200E4
:0A311600D9CFE6FFE1CFD9FF040E88
:10312000E126010EDE6EDE6ADE6ADD6ADD52DD5208
:1031300068EC17F031EC06F0EEEC06F0020EE66EED
:1031400024EC1AF0E55200094EE0D9CFE9FFDACFBE
:10315000EAFFEE2A000EEE22EE22EE22D9CFE9FFA0
:10316000DACFEAFFEECFE6FFEECFE6FFEECFE6FFE7
:10317000EFCFE6FF7F0E006E350E016E026A00C0D3
:10318000E6FF01C0E6FF02C0E6FF9E0EE66E010EFE
:10319000E66E00EC19F0036E090EE15E0350DD0EE1
:1031A000E66E010EE66E9E0EE66E010EE66E13EC06
:1031B00018F0E552E552E552E5529E0EE66E010E1C
:1031C000E66ED9CFE9FFDACFEAFFEECFE6FFEECF2A
:1031D000E6FFEECFE6FFEFCFE6FF73EC06F0006E02
:1031E000060EE15E0050F6EC07F0A8D7040EE15C95
:1031F00002E2E16AE552E16EE552E7CFD9FF120043
:10320000D9CFE6FFDACFE6FFE1CFD9FFE2CFDAFF91
:10321000E652E652E652E652D950F90F006EFF0E22
:10322000DA20016E020E00C0DBFF030E01C0DBFFDF
:10323000020EDBCFE6FF030EDBCFE6FFF90EDBCF9E
:10324000E6FFFA0EDBCFE6FFFB0EDBCFE6FFD95041
:10325000FC0FE66EFF0EDA20E66E36EC00F0006E34
:10326000070EE15C02E2E16AE552E16E0050F3CF45
:10327000DEFFF4CFDDFFFC0EDBCFE9FFFD0EDBCF81
:10328000EAFFEF6ADECF00F0DDCF01F000C0F3FF10
:1032900001C0F4FF040EE15C02E2E16AE552E16E76
:0C32A000E552E5CFDAFFE7CFD9FF1200BE
:0432AC000E0EF66E9E
:1032B000000EF76E000EF86E05010900F550E96F7B
:1032C0000900F550EA6F03E1E96701D03DD009003C
:1032D000F550E46F0900F550E56F0900F550E66F11
:1032E00009000900F550E96E0900F550EA6E090081
:1032F00009000900F550E76F0900F550E86F090073
:103300000900F6CFEBF5F7CFECF5F8CFEDF5E4C516
:10331000F6FFE5C5F7FFE6C5F8FF0501E75302E153
:10332000E85307E00900F550EE6EE707F8E2E8071A
:10333000F9D7EBC5F6FFECC5F7FFEDC5F8FF0501C2
:0A334000E907000EEA5BBFD7120098
:06334A00D9CFE6FFDACF47
:10335000E6FFE1CFD9FFE2CFDAFFFB0EDBCF00F0D3
:10336000FC0EDBCF01F00001800E01141AE1FB0E10
:10337000DBCFE9FFFC0EDBCFEAFFEECFF3FFEDCFB3
:10338000F4FFEE2A000EEF22F3CFE9FFF4CFEAFFBD
:10339000FD0EDBCFEFFFEF50016AF36E01C0F4FFCB
:1033A00010D0FB0EDB50FE0806E1FD0EDBCFE6FF82
:1033B000FFEC1AF005D0FD0EDBCFE6FF03EC00F0CA
:0E33C000E552E552E5CFDAFFE7CFD9FF120064
:0233CE00D9CF55
:1033D000E6FFDACFE6FFE1CFD9FFE2CFDAFFAC6A52
:1033E000AB6AFD0EDBB0AC88DBA202D0AC8CAB8C40
:1033F000DBB4AC8EDBA602D0AB8801D0AB8ADBA8F5
:1034000002D0AC8401D0AC949E98DBAC02D09D8AF3
:1034100001D09D9A9E9ADBAE02D09D8801D09D98E6
:10342000FB0EDB50AF6EAC8AAB8E949C948EAC508E
:10343000100B04E0AC50800B01E1948CE552E5CF19
:08344000DAFFE7CFD9FF12000B
:08344800D9CFE6FFE1CFD9FF67
:10345000E652DF6ADF5008E1100E9210926E010E04
:103460009310936E010EDF6EFE0EDB50030A12E026
:10347000010A02E0000E1CD080B80AD0280EE66EC9
:10348000E66AF0EC16F0E552E552010E11D010D0CC
:10349000000E0ED081B00AD0280EE66EE66AF0EC7F
:1034A00016F0E552E552010E03D002D0000E00D016
:0A34B000E552E552E7CFD9FF120004
:0634BA001E502302F3CFB7
:1034C0001AF0F4CF1BF02402F3501B26000EF42058
:1034D0001C6E1E502502F3501C26000EF4201D6E9B
:1034E0001E502602F3501D261F502302F3501B26A8
:1034F000F4501C22000E1D221F502402F3501C26E3
:10350000F4501D221F502502F3501D262050230287
:10351000F3501C26F4501D2220502402F3501D2687
:0A35200021502302F3501D26120073
:06352A001D6A1C6A1B6A09
:103530001A6A200EE76ED8901E361F3620362136C6
:103540001A361B361C361D3623501A5C24501B5865
:1035500025501C5826501D5809E323501A5E24504C
:103560001B5A25501C5A26501D5A1E2AE72EE4D7F6
:02357000120047
:0E357200416723256C64204E20256C64004DBB
:10358000616723256C6420004D416723256C64200E
:0E35900000416723256C64205320256C6400E5
:02359E00F36ACE
:1035A000F46AFF0EE124E96EFF0EE220EA6EED669A
:1035B00007D02F0EEF6404D03A0EEF6001D0F32A4B
:0235C0001200F7
:0E35C200FF0EE350346E480E01D04C0EE76E43
:1035D000E72EFED7E76AE72EFED7342EF7D7000096
:0235E0001200D7
:0E35E20014EE00F024EE00F0F86A199C56EC8E
:0E35F00019F028EC1BF08BEC18F0FBD7120042
:0235FE00FF0EBE
:10360000E350ACBA04D0AF6AAB8EAC8A949CACA247
:0A361000FED7AD6EF36EF46A1200EF
:06361A00FF0EE350E84E34
:103620001200000000D000D000D0E82EFAD712001F
:103630003031323334353637383961626364656628
:013640000089
:013641000088
:0E36420000EE00F00F0EEE6AEA62FDD71200F5
:02365000120066
:0736520032322E35B04300B7
:0736590065727265757220B5
:103660006261756472617465002020202020202032
:0A3670002020202020202020200030
:03367A000000004D
:00000001FF
